{"contracts/ExampleCrowdSale.sol":{"ExampleCrowdSale":{"abi":[{"inputs":[{"internalType":"address","name":"priceFeed_","type":"address"},{"internalType":"address","name":"token_","type":"address"},{"internalType":"address payable","name":"wallet_","type":"address"},{"internalType":"uint256","name":"usdRate_","type":"uint256"},{"internalType":"uint256","name":"vestingEndDate_","type":"uint256"},{"internalType":"address","name":"vestingVault_","type":"address"}],"stateMutability":"nonpayable","type":"constructor"},{"inputs":[],"name":"AccessControlBadConfirmation","type":"error"},{"inputs":[{"internalType":"address","name":"account","type":"address"},{"internalType":"bytes32","name":"neededRole","type":"bytes32"}],"name":"AccessControlUnauthorizedAccount","type":"error"},{"inputs":[],"name":"EnforcedPause","type":"error"},{"inputs":[],"name":"ExpectedPause","type":"error"},{"inputs":[],"name":"ReentrancyGuardReentrantCall","type":"error"},{"anonymous":false,"inputs":[{"indexed":false,"internalType":"address","name":"account","type":"address"}],"name":"Paused","type":"event"},{"anonymous":false,"inputs":[{"indexed":true,"internalType":"bytes32","name":"role","type":"bytes32"},{"indexed":true,"internalType":"bytes32","name":"previousAdminRole","type":"bytes32"},{"indexed":true,"internalType":"bytes32","name":"newAdminRole","type":"bytes32"}],"name":"RoleAdminChanged","type":"event"},{"anonymous":false,"inputs":[{"indexed":true,"internalType":"bytes32","name":"role","type":"bytes32"},{"indexed":true,"internalType":"address","name":"account","type":"address"},{"indexed":true,"internalType":"address","name":"sender","type":"address"}],"name":"RoleGranted","type":"event"},{"anonymous":false,"inputs":[{"indexed":true,"internalType":"bytes32","name":"role","type":"bytes32"},{"indexed":true,"internalType":"address","name":"account","type":"address"},{"indexed":true,"internalType":"address","name":"sender","type":"address"}],"name":"RoleRevoked","type":"event"},{"anonymous":false,"inputs":[{"indexed":true,"internalType":"address","name":"purchaser","type":"address"},{"indexed":true,"internalType":"address","name":"beneficiary","type":"address"},{"indexed":false,"internalType":"uint256","name":"value","type":"uint256"},{"indexed":false,"internalType":"uint256","name":"amount","type":"uint256"}],"name":"TokensPurchased","type":"event"},{"anonymous":false,"inputs":[{"indexed":false,"internalType":"address","name":"account","type":"address"}],"name":"Unpaused","type":"event"},{"stateMutability":"payable","type":"fallback"},{"inputs":[],"name":"DEFAULT_ADMIN_ROLE","outputs":[{"internalType":"bytes32","name":"","type":"bytes32"}],"stateMutability":"view","type":"function"},{"inputs":[],"name":"WHITELISTED_ROLE","outputs":[{"internalType":"bytes32","name":"","type":"bytes32"}],"stateMutability":"view","type":"function"},{"inputs":[{"internalType":"address","name":"beneficiary","type":"address"}],"name":"buyTokens","outputs":[],"stateMutability":"payable","type":"function"},{"inputs":[{"internalType":"address","name":"beneficiary","type":"address"},{"internalType":"uint256","name":"tokenAmount","type":"uint256"}],"name":"externalBuyTokens","outputs":[],"stateMutability":"nonpayable","type":"function"},{"inputs":[],"name":"fundsRaised","outputs":[{"internalType":"uint256","name":"","type":"uint256"}],"stateMutability":"view","type":"function"},{"inputs":[{"internalType":"bytes32","name":"role","type":"bytes32"}],"name":"getRoleAdmin","outputs":[{"internalType":"bytes32","name":"","type":"bytes32"}],"stateMutability":"view","type":"function"},{"inputs":[{"internalType":"uint256","name":"weiAmount","type":"uint256"}],"name":"getTokenAmount","outputs":[{"internalType":"uint256","name":"","type":"uint256"}],"stateMutability":"view","type":"function"},{"inputs":[{"internalType":"uint256","name":"tokenAmount","type":"uint256"}],"name":"getWeiAmount","outputs":[{"internalType":"uint256","name":"","type":"uint256"}],"stateMutability":"view","type":"function"},{"inputs":[{"internalType":"bytes32","name":"role","type":"bytes32"},{"internalType":"address","name":"account","type":"address"}],"name":"grantRole","outputs":[],"stateMutability":"nonpayable","type":"function"},{"inputs":[{"internalType":"bytes32","name":"role","type":"bytes32"},{"internalType":"address","name":"account","type":"address"}],"name":"hasRole","outputs":[{"internalType":"bool","name":"","type":"bool"}],"stateMutability":"view","type":"function"},{"inputs":[],"name":"pause","outputs":[],"stateMutability":"nonpayable","type":"function"},{"inputs":[],"name":"paused","outputs":[{"internalType":"bool","name":"","type":"bool"}],"stateMutability":"view","type":"function"},{"inputs":[{"internalType":"bytes32","name":"role","type":"bytes32"},{"internalType":"address","name":"callerConfirmation","type":"address"}],"name":"renounceRole","outputs":[],"stateMutability":"nonpayable","type":"function"},{"inputs":[{"internalType":"bytes32","name":"role","type":"bytes32"},{"internalType":"address","name":"account","type":"address"}],"name":"revokeRole","outputs":[],"stateMutability":"nonpayable","type":"function"},{"inputs":[{"internalType":"bytes4","name":"interfaceId","type":"bytes4"}],"name":"supportsInterface","outputs":[{"internalType":"bool","name":"","type":"bool"}],"stateMutability":"view","type":"function"},{"inputs":[],"name":"token","outputs":[{"internalType":"contract IERC20","name":"","type":"address"}],"stateMutability":"view","type":"function"},{"inputs":[],"name":"tokensAvailable","outputs":[{"internalType":"uint256","name":"","type":"uint256"}],"stateMutability":"view","type":"function"},{"inputs":[],"name":"unpause","outputs":[],"stateMutability":"nonpayable","type":"function"},{"inputs":[],"name":"wallet","outputs":[{"internalType":"address payable","name":"","type":"address"}],"stateMutability":"view","type":"function"},{"stateMutability":"payable","type":"receive"}],"evm":{"bytecode":{"linkReferences":{},"object":"6080346101b457601f61155c38819003918201601f19168301916001600160401b038311848410176101b95780849260c0946040528339810103126101b457610047816101cf565b90610054602082016101cf565b60408201519092906001600160a01b038116908190036101b45760608301519161008560a0608086015195016101cf565b9460016002558215610161576001600160a01b0316908115610110576100aa336101e3565b5060018060a01b031660018060a01b0319600454161760045560018060a01b0319600354161760035560018060a01b0319600654161760065560055560085560018060a01b031660018060a01b031960095416176009556040516112ca90816102728239f35b60405162461bcd60e51b8152602060048201526024808201527f43726f776473616c653a20746f6b656e20697320746865207a65726f206164646044820152637265737360e01b6064820152608490fd5b60405162461bcd60e51b815260206004820152602560248201527f43726f776473616c653a2077616c6c657420697320746865207a65726f206164604482015264647265737360d81b6064820152608490fd5b600080fd5b634e487b7160e01b600052604160045260246000fd5b51906001600160a01b03821682036101b457565b6001600160a01b038116600090815260008051602061153c833981519152602052604090205460ff1661026b576001600160a01b0316600081815260008051602061153c83398151915260205260408120805460ff191660011790553391907f2f8788117e7eff1d82e926ec794901d17c78024a50270940304540a733656f0d8180a4600190565b5060009056fe6080806040526004361015610028575b5036156100205761001e610b8f565b005b61001e610b8f565b60003560e01c90816301ffc9a71461076357508063248a9ca3146107365780632f2ff15d146106f657806336568abe1461068a5780633f4ba83a14610615578063521eb273146105e15780635c975abb146105be5780635f1c3766146104aa57806360659a92146103fe5780636681b9fd146103e05780637a3226ec146103a557806382d5d7ac146103875780638456cb591461030f57806391d14854146102b4578063a217fddf14610298578063c2507ac114610272578063d547741f1461022d578063ec8ac4d81461013f5763fc0c546a14610106573861000f565b3461013a57600060031936011261013a57602073ffffffffffffffffffffffffffffffffffffffff60035416604051908152f35b600080fd5b602060031936011261013a57610153610888565b61015b610f29565b610163610f62565b61016b610c47565b6101753482610f98565b73ffffffffffffffffffffffffffffffffffffffff61019334610abc565b916101a0346007546108ab565b6007556101ad838261109c565b60405192348452602084015216907f6faf93231a456e552dbc9961f58d9713ee4f2e69d15f1975b050ef0911053a7b60403392a3600080808073ffffffffffffffffffffffffffffffffffffffff6006541681903415610223575b3491f115610217576001600255005b6040513d6000823e3d90fd5b6108fc9150610208565b3461013a57604060031936011261013a5761001e60043561024c610865565b9061026d61026882600052600160205260016040600020015490565b610cd2565b610e1e565b3461013a57602060031936011261013a576020610290600435610abc565b604051908152f35b3461013a57600060031936011261013a57602060405160008152f35b3461013a57604060031936011261013a576102cd610865565b600435600052600160205273ffffffffffffffffffffffffffffffffffffffff60406000209116600052602052602060ff604060002054166040519015158152f35b3461013a57600060031936011261013a57610328610f62565b610330610f62565b60017fffffffffffffffffffffffffffffffffffffffffffffffffffffffffffffff0060005416176000557f62e78cea01bee320cd4e420270b5ea74000d11b0c9f74754ebdbfc544b05a2586020604051338152a1005b3461013a57602060031936011261013a5760206102906004356109b6565b3461013a57600060031936011261013a5760206040517f8429d542926e6695b59ac6fbdcd9b37e8b1aeb757afab06ab60b1bb5878c3b498152f35b3461013a57600060031936011261013a576020600754604051908152f35b3461013a57600060031936011261013a576024602073ffffffffffffffffffffffffffffffffffffffff60035416604051928380927f70a082310000000000000000000000000000000000000000000000000000000082523060048301525afa801561021757600090610477575b602090604051908152f35b506020813d6020116104a2575b81610491602093836108e7565b8101031261013a576020905161046c565b3d9150610484565b3461013a57604060031936011261013a576104c3610888565b602435906104cf610f29565b6104d7610f62565b3360009081527fa6eef7e35abe7026729641147f7915573c7e97b47efa546f5f6e3230263bcb49602052604090205460ff161561058b5773ffffffffffffffffffffffffffffffffffffffff9061052d836109b6565b926105388483610f98565b610544846007546108ab565b600755610551818361109c565b604051938452602084015216907f6faf93231a456e552dbc9961f58d9713ee4f2e69d15f1975b050ef0911053a7b60403392a36001600255005b7fe2517d3f0000000000000000000000000000000000000000000000000000000060005233600452600060245260446000fd5b3461013a57600060031936011261013a57602060ff600054166040519015158152f35b3461013a57600060031936011261013a57602073ffffffffffffffffffffffffffffffffffffffff60065416604051908152f35b3461013a57600060031936011261013a5761062e610ef2565b610636610ef2565b7fffffffffffffffffffffffffffffffffffffffffffffffffffffffffffffff00600054166000557f5db9ee0a495bf2e6ff9c91a7834c1ba4fdd244a5e8aa4e537bd38aeae4b073aa6020604051338152a1005b3461013a57604060031936011261013a576106a3610865565b3373ffffffffffffffffffffffffffffffffffffffff8216036106cc5761001e90600435610e1e565b7f6697b2320000000000000000000000000000000000000000000000000000000060005260046000fd5b3461013a57604060031936011261013a5761001e600435610715610865565b9061073161026882600052600160205260016040600020015490565b610d3f565b3461013a57602060031936011261013a576020610290600435600052600160205260016040600020015490565b3461013a57602060031936011261013a57600435907fffffffff00000000000000000000000000000000000000000000000000000000821680920361013a57817f1b6036c8000000000000000000000000000000000000000000000000000000006020931490811561083b575b81156107de575b5015158152f35b7f7965db0b00000000000000000000000000000000000000000000000000000000811491508115610811575b50836107d7565b7f01ffc9a7000000000000000000000000000000000000000000000000000000009150148361080a565b7f5c975abb00000000000000000000000000000000000000000000000000000000811491506107d0565b6024359073ffffffffffffffffffffffffffffffffffffffff8216820361013a57565b6004359073ffffffffffffffffffffffffffffffffffffffff8216820361013a57565b919082018092116108b857565b7f4e487b7100000000000000000000000000000000000000000000000000000000600052601160045260246000fd5b90601f7fffffffffffffffffffffffffffffffffffffffffffffffffffffffffffffffe0910116810190811067ffffffffffffffff82111761092857604052565b7f4e487b7100000000000000000000000000000000000000000000000000000000600052604160045260246000fd5b519069ffffffffffffffffffff8216820361013a57565b908160a091031261013a5761098281610957565b916020820151916040810151916109a0608060608401519301610957565b90565b818102929181159184041417156108b857565b73ffffffffffffffffffffffffffffffffffffffff60045416806109e857506109e4600a91600554906109a3565b0490565b60a0600491604051928380927ffeaf968c0000000000000000000000000000000000000000000000000000000082525afa90811561021757600091610a88575b506305f5e1008202918083046305f5e10014901517156108b857600554610a4e916109a3565b908115610a59570490565b7f4e487b7100000000000000000000000000000000000000000000000000000000600052601260045260246000fd5b610aaa915060a03d60a011610ab5575b610aa281836108e7565b81019061096e565b505050905038610a28565b503d610a98565b73ffffffffffffffffffffffffffffffffffffffff6004541680610b045750600a810290808204600a14901517156108b8576109e4670de0b6b3a764000091600554906109a3565b9060a0600492604051938480927ffeaf968c0000000000000000000000000000000000000000000000000000000082525afa918215610217576a52b7d2dcc80cd2e4000000926109e492610b6092600092610b69575b506109a3565b600554906109a3565b610b8391925060a03d60a011610ab557610aa281836108e7565b50505090509038610b5a565b610b97610f29565b610b9f610f62565b610ba7610c47565b610bb13433610f98565b610bba34610abc565b610bc6346007546108ab565b600755610bd3813361109c565b60405190348252602082015233907f6faf93231a456e552dbc9961f58d9713ee4f2e69d15f1975b050ef0911053a7b60403392a3600080808073ffffffffffffffffffffffffffffffffffffffff6006541681903415610c3d575b3491f115610217576001600255565b6108fc9150610c2e565b3360009081527f9a12e7d163daa3679fdde2f980fb077ecd75d9611348bc15a31355afb064154e602052604090205460ff1615610c8057565b7fe2517d3f00000000000000000000000000000000000000000000000000000000600052336004527f8429d542926e6695b59ac6fbdcd9b37e8b1aeb757afab06ab60b1bb5878c3b4960245260446000fd5b806000526001602052604060002073ffffffffffffffffffffffffffffffffffffffff331660005260205260ff6040600020541615610d0e5750565b7fe2517d3f000000000000000000000000000000000000000000000000000000006000523360045260245260446000fd5b806000526001602052604060002073ffffffffffffffffffffffffffffffffffffffff831660005260205260ff6040600020541615600014610e1757806000526001602052604060002073ffffffffffffffffffffffffffffffffffffffff8316600052602052604060002060017fffffffffffffffffffffffffffffffffffffffffffffffffffffffffffffff0082541617905573ffffffffffffffffffffffffffffffffffffffff339216907f2f8788117e7eff1d82e926ec794901d17c78024a50270940304540a733656f0d600080a4600190565b5050600090565b806000526001602052604060002073ffffffffffffffffffffffffffffffffffffffff831660005260205260ff60406000205416600014610e1757806000526001602052604060002073ffffffffffffffffffffffffffffffffffffffff831660005260205260406000207fffffffffffffffffffffffffffffffffffffffffffffffffffffffffffffff00815416905573ffffffffffffffffffffffffffffffffffffffff339216907ff6391f5c32d9c69d2a47ea670b442974b53935d1edc7fd64eb21e047a839171b600080a4600190565b60ff6000541615610eff57565b7f8dfc202b0000000000000000000000000000000000000000000000000000000060005260046000fd5b6002805414610f385760028055565b7f3ee5aeb50000000000000000000000000000000000000000000000000000000060005260046000fd5b60ff60005416610f6e57565b7fd93c06650000000000000000000000000000000000000000000000000000000060005260046000fd5b73ffffffffffffffffffffffffffffffffffffffff16156110185715610fba57565b60646040517f08c379a000000000000000000000000000000000000000000000000000000000815260206004820152601660248201527f43726f776473616c653a20616d6f756e742069732030000000000000000000006044820152fd5b60846040517f08c379a000000000000000000000000000000000000000000000000000000000815260206004820152602a60248201527f43726f776473616c653a2062656e656669636961727920697320746865207a6560448201527f726f2061646472657373000000000000000000000000000000000000000000006064820152fd5b600854909291906000901561117d5773ffffffffffffffffffffffffffffffffffffffff600954169360085494803b1561117957606483928373ffffffffffffffffffffffffffffffffffffffff93604051998a9586947ff74bc9d600000000000000000000000000000000000000000000000000000000865216600485015260248401528760448401525af193841561116c5761115a939461115c575b505073ffffffffffffffffffffffffffffffffffffffff60095416611184565b565b81611166916108e7565b3861113a565b50604051903d90823e3d90fd5b8280fd5b5061115a91925b73ffffffffffffffffffffffffffffffffffffffff60446020926000836003541660405196879586947fa9059cbb00000000000000000000000000000000000000000000000000000000865216600485015260248401525af190811561021757600091611252575b50156111f457565b60646040517f08c379a000000000000000000000000000000000000000000000000000000000815260206004820152601560248201527f5472616e7366657220756e7375636365737366756c00000000000000000000006044820152fd5b6020813d60201161128c575b8161126b602093836108e7565b8101031261128857519081151582036112855750386111ec565b80fd5b5080fd5b3d915061125e56fea2646970667358221220e8cccf7c16902ec904be8db02640992d37de060300a19ef09767f3b7fb7e22a664736f6c634300081b0033a6eef7e35abe7026729641147f7915573c7e97b47efa546f5f6e3230263bcb49","opcodes":"PUSH1 0x80 CALLVALUE PUSH2 0x1B4 JUMPI PUSH1 0x1F PUSH2 0x155C CODESIZE DUP2 SWAP1 SUB SWAP2 DUP3 ADD PUSH1 0x1F NOT AND DUP4 ADD SWAP2 PUSH1 0x1 PUSH1 0x1 PUSH1 0x40 SHL SUB DUP4 GT DUP5 DUP5 LT OR PUSH2 0x1B9 JUMPI DUP1 DUP5 SWAP3 PUSH1 0xC0 SWAP5 PUSH1 0x40 MSTORE DUP4 CODECOPY DUP2 ADD SUB SLT PUSH2 0x1B4 JUMPI PUSH2 0x47 DUP2 PUSH2 0x1CF JUMP JUMPDEST SWAP1 PUSH2 0x54 PUSH1 0x20 DUP3 ADD PUSH2 0x1CF JUMP JUMPDEST PUSH1 0x40 DUP3 ADD MLOAD SWAP1 SWAP3 SWAP1 PUSH1 0x1 PUSH1 0x1 PUSH1 0xA0 SHL SUB DUP2 AND SWAP1 DUP2 SWAP1 SUB PUSH2 0x1B4 JUMPI PUSH1 0x60 DUP4 ADD MLOAD SWAP2 PUSH2 0x85 PUSH1 0xA0 PUSH1 0x80 DUP7 ADD MLOAD SWAP6 ADD PUSH2 0x1CF JUMP JUMPDEST SWAP5 PUSH1 0x1 PUSH1 0x2 SSTORE DUP3 ISZERO PUSH2 0x161 JUMPI PUSH1 0x1 PUSH1 0x1 PUSH1 0xA0 SHL SUB AND SWAP1 DUP2 ISZERO PUSH2 0x110 JUMPI PUSH2 0xAA CALLER PUSH2 0x1E3 JUMP JUMPDEST POP PUSH1 0x1 DUP1 PUSH1 0xA0 SHL SUB AND PUSH1 0x1 DUP1 PUSH1 0xA0 SHL SUB NOT PUSH1 0x4 SLOAD AND OR PUSH1 0x4 SSTORE PUSH1 0x1 DUP1 PUSH1 0xA0 SHL SUB NOT PUSH1 0x3 SLOAD AND OR PUSH1 0x3 SSTORE PUSH1 0x1 DUP1 PUSH1 0xA0 SHL SUB NOT PUSH1 0x6 SLOAD AND OR PUSH1 0x6 SSTORE PUSH1 0x5 SSTORE PUSH1 0x8 SSTORE PUSH1 0x1 DUP1 PUSH1 0xA0 SHL SUB AND PUSH1 0x1 DUP1 PUSH1 0xA0 SHL SUB NOT PUSH1 0x9 SLOAD AND OR PUSH1 0x9 SSTORE PUSH1 0x40 MLOAD PUSH2 0x12CA SWAP1 DUP2 PUSH2 0x272 DUP3 CODECOPY RETURN JUMPDEST PUSH1 0x40 MLOAD PUSH3 0x461BCD PUSH1 0xE5 SHL DUP2 MSTORE PUSH1 0x20 PUSH1 0x4 DUP3 ADD MSTORE PUSH1 0x24 DUP1 DUP3 ADD MSTORE PUSH32 0x43726F776473616C653A20746F6B656E20697320746865207A65726F20616464 PUSH1 0x44 DUP3 ADD MSTORE PUSH4 0x72657373 PUSH1 0xE0 SHL PUSH1 0x64 DUP3 ADD MSTORE PUSH1 0x84 SWAP1 REVERT JUMPDEST PUSH1 0x40 MLOAD PUSH3 0x461BCD PUSH1 0xE5 SHL DUP2 MSTORE PUSH1 0x20 PUSH1 0x4 DUP3 ADD MSTORE PUSH1 0x25 PUSH1 0x24 DUP3 ADD MSTORE PUSH32 0x43726F776473616C653A2077616C6C657420697320746865207A65726F206164 PUSH1 0x44 DUP3 ADD MSTORE PUSH5 0x6472657373 PUSH1 0xD8 SHL PUSH1 0x64 DUP3 ADD MSTORE PUSH1 0x84 SWAP1 REVERT JUMPDEST PUSH1 0x0 DUP1 REVERT JUMPDEST PUSH4 0x4E487B71 PUSH1 0xE0 SHL PUSH1 0x0 MSTORE PUSH1 0x41 PUSH1 0x4 MSTORE PUSH1 0x24 PUSH1 0x0 REVERT JUMPDEST MLOAD SWAP1 PUSH1 0x1 PUSH1 0x1 PUSH1 0xA0 SHL SUB DUP3 AND DUP3 SUB PUSH2 0x1B4 JUMPI JUMP JUMPDEST PUSH1 0x1 PUSH1 0x1 PUSH1 0xA0 SHL SUB DUP2 AND PUSH1 0x0 SWAP1 DUP2 MSTORE PUSH1 0x0 DUP1 MLOAD PUSH1 0x20 PUSH2 0x153C DUP4 CODECOPY DUP2 MLOAD SWAP2 MSTORE PUSH1 0x20 MSTORE PUSH1 0x40 SWAP1 KECCAK256 SLOAD PUSH1 0xFF AND PUSH2 0x26B JUMPI PUSH1 0x1 PUSH1 0x1 PUSH1 0xA0 SHL SUB AND PUSH1 0x0 DUP2 DUP2 MSTORE PUSH1 0x0 DUP1 MLOAD PUSH1 0x20 PUSH2 0x153C DUP4 CODECOPY DUP2 MLOAD SWAP2 MSTORE PUSH1 0x20 MSTORE PUSH1 0x40 DUP2 KECCAK256 DUP1 SLOAD PUSH1 0xFF NOT AND PUSH1 0x1 OR SWAP1 SSTORE CALLER SWAP2 SWAP1 PUSH32 0x2F8788117E7EFF1D82E926EC794901D17C78024A50270940304540A733656F0D DUP2 DUP1 LOG4 PUSH1 0x1 SWAP1 JUMP JUMPDEST POP PUSH1 0x0 SWAP1 JUMP INVALID PUSH1 0x80 DUP1 PUSH1 0x40 MSTORE PUSH1 0x4 CALLDATASIZE LT ISZERO PUSH2 0x28 JUMPI JUMPDEST POP CALLDATASIZE ISZERO PUSH2 0x20 JUMPI PUSH2 0x1E PUSH2 0xB8F JUMP JUMPDEST STOP JUMPDEST PUSH2 0x1E PUSH2 0xB8F JUMP JUMPDEST PUSH1 0x0 CALLDATALOAD PUSH1 0xE0 SHR SWAP1 DUP2 PUSH4 0x1FFC9A7 EQ PUSH2 0x763 JUMPI POP DUP1 PUSH4 0x248A9CA3 EQ PUSH2 0x736 JUMPI DUP1 PUSH4 0x2F2FF15D EQ PUSH2 0x6F6 JUMPI DUP1 PUSH4 0x36568ABE EQ PUSH2 0x68A JUMPI DUP1 PUSH4 0x3F4BA83A EQ PUSH2 0x615 JUMPI DUP1 PUSH4 0x521EB273 EQ PUSH2 0x5E1 JUMPI DUP1 PUSH4 0x5C975ABB EQ PUSH2 0x5BE JUMPI DUP1 PUSH4 0x5F1C3766 EQ PUSH2 0x4AA JUMPI DUP1 PUSH4 0x60659A92 EQ PUSH2 0x3FE JUMPI DUP1 PUSH4 0x6681B9FD EQ PUSH2 0x3E0 JUMPI DUP1 PUSH4 0x7A3226EC EQ PUSH2 0x3A5 JUMPI DUP1 PUSH4 0x82D5D7AC EQ PUSH2 0x387 JUMPI DUP1 PUSH4 0x8456CB59 EQ PUSH2 0x30F JUMPI DUP1 PUSH4 0x91D14854 EQ PUSH2 0x2B4 JUMPI DUP1 PUSH4 0xA217FDDF EQ PUSH2 0x298 JUMPI DUP1 PUSH4 0xC2507AC1 EQ PUSH2 0x272 JUMPI DUP1 PUSH4 0xD547741F EQ PUSH2 0x22D JUMPI DUP1 PUSH4 0xEC8AC4D8 EQ PUSH2 0x13F JUMPI PUSH4 0xFC0C546A EQ PUSH2 0x106 JUMPI CODESIZE PUSH2 0xF JUMP JUMPDEST CALLVALUE PUSH2 0x13A JUMPI PUSH1 0x0 PUSH1 0x3 NOT CALLDATASIZE ADD SLT PUSH2 0x13A JUMPI PUSH1 0x20 PUSH20 0xFFFFFFFFFFFFFFFFFFFFFFFFFFFFFFFFFFFFFFFF PUSH1 0x3 SLOAD AND PUSH1 0x40 MLOAD SWAP1 DUP2 MSTORE RETURN JUMPDEST PUSH1 0x0 DUP1 REVERT JUMPDEST PUSH1 0x20 PUSH1 0x3 NOT CALLDATASIZE ADD SLT PUSH2 0x13A JUMPI PUSH2 0x153 PUSH2 0x888 JUMP JUMPDEST PUSH2 0x15B PUSH2 0xF29 JUMP JUMPDEST PUSH2 0x163 PUSH2 0xF62 JUMP JUMPDEST PUSH2 0x16B PUSH2 0xC47 JUMP JUMPDEST PUSH2 0x175 CALLVALUE DUP3 PUSH2 0xF98 JUMP JUMPDEST PUSH20 0xFFFFFFFFFFFFFFFFFFFFFFFFFFFFFFFFFFFFFFFF PUSH2 0x193 CALLVALUE PUSH2 0xABC JUMP JUMPDEST SWAP2 PUSH2 0x1A0 CALLVALUE PUSH1 0x7 SLOAD PUSH2 0x8AB JUMP JUMPDEST PUSH1 0x7 SSTORE PUSH2 0x1AD DUP4 DUP3 PUSH2 0x109C JUMP JUMPDEST PUSH1 0x40 MLOAD SWAP3 CALLVALUE DUP5 MSTORE PUSH1 0x20 DUP5 ADD MSTORE AND SWAP1 PUSH32 0x6FAF93231A456E552DBC9961F58D9713EE4F2E69D15F1975B050EF0911053A7B PUSH1 0x40 CALLER SWAP3 LOG3 PUSH1 0x0 DUP1 DUP1 DUP1 PUSH20 0xFFFFFFFFFFFFFFFFFFFFFFFFFFFFFFFFFFFFFFFF PUSH1 0x6 SLOAD AND DUP2 SWAP1 CALLVALUE ISZERO PUSH2 0x223 JUMPI JUMPDEST CALLVALUE SWAP2 CALL ISZERO PUSH2 0x217 JUMPI PUSH1 0x1 PUSH1 0x2 SSTORE STOP JUMPDEST PUSH1 0x40 MLOAD RETURNDATASIZE PUSH1 0x0 DUP3 RETURNDATACOPY RETURNDATASIZE SWAP1 REVERT JUMPDEST PUSH2 0x8FC SWAP2 POP PUSH2 0x208 JUMP JUMPDEST CALLVALUE PUSH2 0x13A JUMPI PUSH1 0x40 PUSH1 0x3 NOT CALLDATASIZE ADD SLT PUSH2 0x13A JUMPI PUSH2 0x1E PUSH1 0x4 CALLDATALOAD PUSH2 0x24C PUSH2 0x865 JUMP JUMPDEST SWAP1 PUSH2 0x26D PUSH2 0x268 DUP3 PUSH1 0x0 MSTORE PUSH1 0x1 PUSH1 0x20 MSTORE PUSH1 0x1 PUSH1 0x40 PUSH1 0x0 KECCAK256 ADD SLOAD SWAP1 JUMP JUMPDEST PUSH2 0xCD2 JUMP JUMPDEST PUSH2 0xE1E JUMP JUMPDEST CALLVALUE PUSH2 0x13A JUMPI PUSH1 0x20 PUSH1 0x3 NOT CALLDATASIZE ADD SLT PUSH2 0x13A JUMPI PUSH1 0x20 PUSH2 0x290 PUSH1 0x4 CALLDATALOAD PUSH2 0xABC JUMP JUMPDEST PUSH1 0x40 MLOAD SWAP1 DUP2 MSTORE RETURN JUMPDEST CALLVALUE PUSH2 0x13A JUMPI PUSH1 0x0 PUSH1 0x3 NOT CALLDATASIZE ADD SLT PUSH2 0x13A JUMPI PUSH1 0x20 PUSH1 0x40 MLOAD PUSH1 0x0 DUP2 MSTORE RETURN JUMPDEST CALLVALUE PUSH2 0x13A JUMPI PUSH1 0x40 PUSH1 0x3 NOT CALLDATASIZE ADD SLT PUSH2 0x13A JUMPI PUSH2 0x2CD PUSH2 0x865 JUMP JUMPDEST PUSH1 0x4 CALLDATALOAD PUSH1 0x0 MSTORE PUSH1 0x1 PUSH1 0x20 MSTORE PUSH20 0xFFFFFFFFFFFFFFFFFFFFFFFFFFFFFFFFFFFFFFFF PUSH1 0x40 PUSH1 0x0 KECCAK256 SWAP2 AND PUSH1 0x0 MSTORE PUSH1 0x20 MSTORE PUSH1 0x20 PUSH1 0xFF PUSH1 0x40 PUSH1 0x0 KECCAK256 SLOAD AND PUSH1 0x40 MLOAD SWAP1 ISZERO ISZERO DUP2 MSTORE RETURN JUMPDEST CALLVALUE PUSH2 0x13A JUMPI PUSH1 0x0 PUSH1 0x3 NOT CALLDATASIZE ADD SLT PUSH2 0x13A JUMPI PUSH2 0x328 PUSH2 0xF62 JUMP JUMPDEST PUSH2 0x330 PUSH2 0xF62 JUMP JUMPDEST PUSH1 0x1 PUSH32 0xFFFFFFFFFFFFFFFFFFFFFFFFFFFFFFFFFFFFFFFFFFFFFFFFFFFFFFFFFFFFFF00 PUSH1 0x0 SLOAD AND OR PUSH1 0x0 SSTORE PUSH32 0x62E78CEA01BEE320CD4E420270B5EA74000D11B0C9F74754EBDBFC544B05A258 PUSH1 0x20 PUSH1 0x40 MLOAD CALLER DUP2 MSTORE LOG1 STOP JUMPDEST CALLVALUE PUSH2 0x13A JUMPI PUSH1 0x20 PUSH1 0x3 NOT CALLDATASIZE ADD SLT PUSH2 0x13A JUMPI PUSH1 0x20 PUSH2 0x290 PUSH1 0x4 CALLDATALOAD PUSH2 0x9B6 JUMP JUMPDEST CALLVALUE PUSH2 0x13A JUMPI PUSH1 0x0 PUSH1 0x3 NOT CALLDATASIZE ADD SLT PUSH2 0x13A JUMPI PUSH1 0x20 PUSH1 0x40 MLOAD PUSH32 0x8429D542926E6695B59AC6FBDCD9B37E8B1AEB757AFAB06AB60B1BB5878C3B49 DUP2 MSTORE RETURN JUMPDEST CALLVALUE PUSH2 0x13A JUMPI PUSH1 0x0 PUSH1 0x3 NOT CALLDATASIZE ADD SLT PUSH2 0x13A JUMPI PUSH1 0x20 PUSH1 0x7 SLOAD PUSH1 0x40 MLOAD SWAP1 DUP2 MSTORE RETURN JUMPDEST CALLVALUE PUSH2 0x13A JUMPI PUSH1 0x0 PUSH1 0x3 NOT CALLDATASIZE ADD SLT PUSH2 0x13A JUMPI PUSH1 0x24 PUSH1 0x20 PUSH20 0xFFFFFFFFFFFFFFFFFFFFFFFFFFFFFFFFFFFFFFFF PUSH1 0x3 SLOAD AND PUSH1 0x40 MLOAD SWAP3 DUP4 DUP1 SWAP3 PUSH32 0x70A0823100000000000000000000000000000000000000000000000000000000 DUP3 MSTORE ADDRESS PUSH1 0x4 DUP4 ADD MSTORE GAS STATICCALL DUP1 ISZERO PUSH2 0x217 JUMPI PUSH1 0x0 SWAP1 PUSH2 0x477 JUMPI JUMPDEST PUSH1 0x20 SWAP1 PUSH1 0x40 MLOAD SWAP1 DUP2 MSTORE RETURN JUMPDEST POP PUSH1 0x20 DUP2 RETURNDATASIZE PUSH1 0x20 GT PUSH2 0x4A2 JUMPI JUMPDEST DUP2 PUSH2 0x491 PUSH1 0x20 SWAP4 DUP4 PUSH2 0x8E7 JUMP JUMPDEST DUP2 ADD SUB SLT PUSH2 0x13A JUMPI PUSH1 0x20 SWAP1 MLOAD PUSH2 0x46C JUMP JUMPDEST RETURNDATASIZE SWAP2 POP PUSH2 0x484 JUMP JUMPDEST CALLVALUE PUSH2 0x13A JUMPI PUSH1 0x40 PUSH1 0x3 NOT CALLDATASIZE ADD SLT PUSH2 0x13A JUMPI PUSH2 0x4C3 PUSH2 0x888 JUMP JUMPDEST PUSH1 0x24 CALLDATALOAD SWAP1 PUSH2 0x4CF PUSH2 0xF29 JUMP JUMPDEST PUSH2 0x4D7 PUSH2 0xF62 JUMP JUMPDEST CALLER PUSH1 0x0 SWAP1 DUP2 MSTORE PUSH32 0xA6EEF7E35ABE7026729641147F7915573C7E97B47EFA546F5F6E3230263BCB49 PUSH1 0x20 MSTORE PUSH1 0x40 SWAP1 KECCAK256 SLOAD PUSH1 0xFF AND ISZERO PUSH2 0x58B JUMPI PUSH20 0xFFFFFFFFFFFFFFFFFFFFFFFFFFFFFFFFFFFFFFFF SWAP1 PUSH2 0x52D DUP4 PUSH2 0x9B6 JUMP JUMPDEST SWAP3 PUSH2 0x538 DUP5 DUP4 PUSH2 0xF98 JUMP JUMPDEST PUSH2 0x544 DUP5 PUSH1 0x7 SLOAD PUSH2 0x8AB JUMP JUMPDEST PUSH1 0x7 SSTORE PUSH2 0x551 DUP2 DUP4 PUSH2 0x109C JUMP JUMPDEST PUSH1 0x40 MLOAD SWAP4 DUP5 MSTORE PUSH1 0x20 DUP5 ADD MSTORE AND SWAP1 PUSH32 0x6FAF93231A456E552DBC9961F58D9713EE4F2E69D15F1975B050EF0911053A7B PUSH1 0x40 CALLER SWAP3 LOG3 PUSH1 0x1 PUSH1 0x2 SSTORE STOP JUMPDEST PUSH32 0xE2517D3F00000000000000000000000000000000000000000000000000000000 PUSH1 0x0 MSTORE CALLER PUSH1 0x4 MSTORE PUSH1 0x0 PUSH1 0x24 MSTORE PUSH1 0x44 PUSH1 0x0 REVERT JUMPDEST CALLVALUE PUSH2 0x13A JUMPI PUSH1 0x0 PUSH1 0x3 NOT CALLDATASIZE ADD SLT PUSH2 0x13A JUMPI PUSH1 0x20 PUSH1 0xFF PUSH1 0x0 SLOAD AND PUSH1 0x40 MLOAD SWAP1 ISZERO ISZERO DUP2 MSTORE RETURN JUMPDEST CALLVALUE PUSH2 0x13A JUMPI PUSH1 0x0 PUSH1 0x3 NOT CALLDATASIZE ADD SLT PUSH2 0x13A JUMPI PUSH1 0x20 PUSH20 0xFFFFFFFFFFFFFFFFFFFFFFFFFFFFFFFFFFFFFFFF PUSH1 0x6 SLOAD AND PUSH1 0x40 MLOAD SWAP1 DUP2 MSTORE RETURN JUMPDEST CALLVALUE PUSH2 0x13A JUMPI PUSH1 0x0 PUSH1 0x3 NOT CALLDATASIZE ADD SLT PUSH2 0x13A JUMPI PUSH2 0x62E PUSH2 0xEF2 JUMP JUMPDEST PUSH2 0x636 PUSH2 0xEF2 JUMP JUMPDEST PUSH32 0xFFFFFFFFFFFFFFFFFFFFFFFFFFFFFFFFFFFFFFFFFFFFFFFFFFFFFFFFFFFFFF00 PUSH1 0x0 SLOAD AND PUSH1 0x0 SSTORE PUSH32 0x5DB9EE0A495BF2E6FF9C91A7834C1BA4FDD244A5E8AA4E537BD38AEAE4B073AA PUSH1 0x20 PUSH1 0x40 MLOAD CALLER DUP2 MSTORE LOG1 STOP JUMPDEST CALLVALUE PUSH2 0x13A JUMPI PUSH1 0x40 PUSH1 0x3 NOT CALLDATASIZE ADD SLT PUSH2 0x13A JUMPI PUSH2 0x6A3 PUSH2 0x865 JUMP JUMPDEST CALLER PUSH20 0xFFFFFFFFFFFFFFFFFFFFFFFFFFFFFFFFFFFFFFFF DUP3 AND SUB PUSH2 0x6CC JUMPI PUSH2 0x1E SWAP1 PUSH1 0x4 CALLDATALOAD PUSH2 0xE1E JUMP JUMPDEST PUSH32 0x6697B23200000000000000000000000000000000000000000000000000000000 PUSH1 0x0 MSTORE PUSH1 0x4 PUSH1 0x0 REVERT JUMPDEST CALLVALUE PUSH2 0x13A JUMPI PUSH1 0x40 PUSH1 0x3 NOT CALLDATASIZE ADD SLT PUSH2 0x13A JUMPI PUSH2 0x1E PUSH1 0x4 CALLDATALOAD PUSH2 0x715 PUSH2 0x865 JUMP JUMPDEST SWAP1 PUSH2 0x731 PUSH2 0x268 DUP3 PUSH1 0x0 MSTORE PUSH1 0x1 PUSH1 0x20 MSTORE PUSH1 0x1 PUSH1 0x40 PUSH1 0x0 KECCAK256 ADD SLOAD SWAP1 JUMP JUMPDEST PUSH2 0xD3F JUMP JUMPDEST CALLVALUE PUSH2 0x13A JUMPI PUSH1 0x20 PUSH1 0x3 NOT CALLDATASIZE ADD SLT PUSH2 0x13A JUMPI PUSH1 0x20 PUSH2 0x290 PUSH1 0x4 CALLDATALOAD PUSH1 0x0 MSTORE PUSH1 0x1 PUSH1 0x20 MSTORE PUSH1 0x1 PUSH1 0x40 PUSH1 0x0 KECCAK256 ADD SLOAD SWAP1 JUMP JUMPDEST CALLVALUE PUSH2 0x13A JUMPI PUSH1 0x20 PUSH1 0x3 NOT CALLDATASIZE ADD SLT PUSH2 0x13A JUMPI PUSH1 0x4 CALLDATALOAD SWAP1 PUSH32 0xFFFFFFFF00000000000000000000000000000000000000000000000000000000 DUP3 AND DUP1 SWAP3 SUB PUSH2 0x13A JUMPI DUP2 PUSH32 0x1B6036C800000000000000000000000000000000000000000000000000000000 PUSH1 0x20 SWAP4 EQ SWAP1 DUP2 ISZERO PUSH2 0x83B JUMPI JUMPDEST DUP2 ISZERO PUSH2 0x7DE JUMPI JUMPDEST POP ISZERO ISZERO DUP2 MSTORE RETURN JUMPDEST PUSH32 0x7965DB0B00000000000000000000000000000000000000000000000000000000 DUP2 EQ SWAP2 POP DUP2 ISZERO PUSH2 0x811 JUMPI JUMPDEST POP DUP4 PUSH2 0x7D7 JUMP JUMPDEST PUSH32 0x1FFC9A700000000000000000000000000000000000000000000000000000000 SWAP2 POP EQ DUP4 PUSH2 0x80A JUMP JUMPDEST PUSH32 0x5C975ABB00000000000000000000000000000000000000000000000000000000 DUP2 EQ SWAP2 POP PUSH2 0x7D0 JUMP JUMPDEST PUSH1 0x24 CALLDATALOAD SWAP1 PUSH20 0xFFFFFFFFFFFFFFFFFFFFFFFFFFFFFFFFFFFFFFFF DUP3 AND DUP3 SUB PUSH2 0x13A JUMPI JUMP JUMPDEST PUSH1 0x4 CALLDATALOAD SWAP1 PUSH20 0xFFFFFFFFFFFFFFFFFFFFFFFFFFFFFFFFFFFFFFFF DUP3 AND DUP3 SUB PUSH2 0x13A JUMPI JUMP JUMPDEST SWAP2 SWAP1 DUP3 ADD DUP1 SWAP3 GT PUSH2 0x8B8 JUMPI JUMP JUMPDEST PUSH32 0x4E487B7100000000000000000000000000000000000000000000000000000000 PUSH1 0x0 MSTORE PUSH1 0x11 PUSH1 0x4 MSTORE PUSH1 0x24 PUSH1 0x0 REVERT JUMPDEST SWAP1 PUSH1 0x1F PUSH32 0xFFFFFFFFFFFFFFFFFFFFFFFFFFFFFFFFFFFFFFFFFFFFFFFFFFFFFFFFFFFFFFE0 SWAP2 ADD AND DUP2 ADD SWAP1 DUP2 LT PUSH8 0xFFFFFFFFFFFFFFFF DUP3 GT OR PUSH2 0x928 JUMPI PUSH1 0x40 MSTORE JUMP JUMPDEST PUSH32 0x4E487B7100000000000000000000000000000000000000000000000000000000 PUSH1 0x0 MSTORE PUSH1 0x41 PUSH1 0x4 MSTORE PUSH1 0x24 PUSH1 0x0 REVERT JUMPDEST MLOAD SWAP1 PUSH10 0xFFFFFFFFFFFFFFFFFFFF DUP3 AND DUP3 SUB PUSH2 0x13A JUMPI JUMP JUMPDEST SWAP1 DUP2 PUSH1 0xA0 SWAP2 SUB SLT PUSH2 0x13A JUMPI PUSH2 0x982 DUP2 PUSH2 0x957 JUMP JUMPDEST SWAP2 PUSH1 0x20 DUP3 ADD MLOAD SWAP2 PUSH1 0x40 DUP2 ADD MLOAD SWAP2 PUSH2 0x9A0 PUSH1 0x80 PUSH1 0x60 DUP5 ADD MLOAD SWAP4 ADD PUSH2 0x957 JUMP JUMPDEST SWAP1 JUMP JUMPDEST DUP2 DUP2 MUL SWAP3 SWAP2 DUP2 ISZERO SWAP2 DUP5 DIV EQ OR ISZERO PUSH2 0x8B8 JUMPI JUMP JUMPDEST PUSH20 0xFFFFFFFFFFFFFFFFFFFFFFFFFFFFFFFFFFFFFFFF PUSH1 0x4 SLOAD AND DUP1 PUSH2 0x9E8 JUMPI POP PUSH2 0x9E4 PUSH1 0xA SWAP2 PUSH1 0x5 SLOAD SWAP1 PUSH2 0x9A3 JUMP JUMPDEST DIV SWAP1 JUMP JUMPDEST PUSH1 0xA0 PUSH1 0x4 SWAP2 PUSH1 0x40 MLOAD SWAP3 DUP4 DUP1 SWAP3 PUSH32 0xFEAF968C00000000000000000000000000000000000000000000000000000000 DUP3 MSTORE GAS STATICCALL SWAP1 DUP2 ISZERO PUSH2 0x217 JUMPI PUSH1 0x0 SWAP2 PUSH2 0xA88 JUMPI JUMPDEST POP PUSH4 0x5F5E100 DUP3 MUL SWAP2 DUP1 DUP4 DIV PUSH4 0x5F5E100 EQ SWAP1 ISZERO OR ISZERO PUSH2 0x8B8 JUMPI PUSH1 0x5 SLOAD PUSH2 0xA4E SWAP2 PUSH2 0x9A3 JUMP JUMPDEST SWAP1 DUP2 ISZERO PUSH2 0xA59 JUMPI DIV SWAP1 JUMP JUMPDEST PUSH32 0x4E487B7100000000000000000000000000000000000000000000000000000000 PUSH1 0x0 MSTORE PUSH1 0x12 PUSH1 0x4 MSTORE PUSH1 0x24 PUSH1 0x0 REVERT JUMPDEST PUSH2 0xAAA SWAP2 POP PUSH1 0xA0 RETURNDATASIZE PUSH1 0xA0 GT PUSH2 0xAB5 JUMPI JUMPDEST PUSH2 0xAA2 DUP2 DUP4 PUSH2 0x8E7 JUMP JUMPDEST DUP2 ADD SWAP1 PUSH2 0x96E JUMP JUMPDEST POP POP POP SWAP1 POP CODESIZE PUSH2 0xA28 JUMP JUMPDEST POP RETURNDATASIZE PUSH2 0xA98 JUMP JUMPDEST PUSH20 0xFFFFFFFFFFFFFFFFFFFFFFFFFFFFFFFFFFFFFFFF PUSH1 0x4 SLOAD AND DUP1 PUSH2 0xB04 JUMPI POP PUSH1 0xA DUP2 MUL SWAP1 DUP1 DUP3 DIV PUSH1 0xA EQ SWAP1 ISZERO OR ISZERO PUSH2 0x8B8 JUMPI PUSH2 0x9E4 PUSH8 0xDE0B6B3A7640000 SWAP2 PUSH1 0x5 SLOAD SWAP1 PUSH2 0x9A3 JUMP JUMPDEST SWAP1 PUSH1 0xA0 PUSH1 0x4 SWAP3 PUSH1 0x40 MLOAD SWAP4 DUP5 DUP1 SWAP3 PUSH32 0xFEAF968C00000000000000000000000000000000000000000000000000000000 DUP3 MSTORE GAS STATICCALL SWAP2 DUP3 ISZERO PUSH2 0x217 JUMPI PUSH11 0x52B7D2DCC80CD2E4000000 SWAP3 PUSH2 0x9E4 SWAP3 PUSH2 0xB60 SWAP3 PUSH1 0x0 SWAP3 PUSH2 0xB69 JUMPI JUMPDEST POP PUSH2 0x9A3 JUMP JUMPDEST PUSH1 0x5 SLOAD SWAP1 PUSH2 0x9A3 JUMP JUMPDEST PUSH2 0xB83 SWAP2 SWAP3 POP PUSH1 0xA0 RETURNDATASIZE PUSH1 0xA0 GT PUSH2 0xAB5 JUMPI PUSH2 0xAA2 DUP2 DUP4 PUSH2 0x8E7 JUMP JUMPDEST POP POP POP SWAP1 POP SWAP1 CODESIZE PUSH2 0xB5A JUMP JUMPDEST PUSH2 0xB97 PUSH2 0xF29 JUMP JUMPDEST PUSH2 0xB9F PUSH2 0xF62 JUMP JUMPDEST PUSH2 0xBA7 PUSH2 0xC47 JUMP JUMPDEST PUSH2 0xBB1 CALLVALUE CALLER PUSH2 0xF98 JUMP JUMPDEST PUSH2 0xBBA CALLVALUE PUSH2 0xABC JUMP JUMPDEST PUSH2 0xBC6 CALLVALUE PUSH1 0x7 SLOAD PUSH2 0x8AB JUMP JUMPDEST PUSH1 0x7 SSTORE PUSH2 0xBD3 DUP2 CALLER PUSH2 0x109C JUMP JUMPDEST PUSH1 0x40 MLOAD SWAP1 CALLVALUE DUP3 MSTORE PUSH1 0x20 DUP3 ADD MSTORE CALLER SWAP1 PUSH32 0x6FAF93231A456E552DBC9961F58D9713EE4F2E69D15F1975B050EF0911053A7B PUSH1 0x40 CALLER SWAP3 LOG3 PUSH1 0x0 DUP1 DUP1 DUP1 PUSH20 0xFFFFFFFFFFFFFFFFFFFFFFFFFFFFFFFFFFFFFFFF PUSH1 0x6 SLOAD AND DUP2 SWAP1 CALLVALUE ISZERO PUSH2 0xC3D JUMPI JUMPDEST CALLVALUE SWAP2 CALL ISZERO PUSH2 0x217 JUMPI PUSH1 0x1 PUSH1 0x2 SSTORE JUMP JUMPDEST PUSH2 0x8FC SWAP2 POP PUSH2 0xC2E JUMP JUMPDEST CALLER PUSH1 0x0 SWAP1 DUP2 MSTORE PUSH32 0x9A12E7D163DAA3679FDDE2F980FB077ECD75D9611348BC15A31355AFB064154E PUSH1 0x20 MSTORE PUSH1 0x40 SWAP1 KECCAK256 SLOAD PUSH1 0xFF AND ISZERO PUSH2 0xC80 JUMPI JUMP JUMPDEST PUSH32 0xE2517D3F00000000000000000000000000000000000000000000000000000000 PUSH1 0x0 MSTORE CALLER PUSH1 0x4 MSTORE PUSH32 0x8429D542926E6695B59AC6FBDCD9B37E8B1AEB757AFAB06AB60B1BB5878C3B49 PUSH1 0x24 MSTORE PUSH1 0x44 PUSH1 0x0 REVERT JUMPDEST DUP1 PUSH1 0x0 MSTORE PUSH1 0x1 PUSH1 0x20 MSTORE PUSH1 0x40 PUSH1 0x0 KECCAK256 PUSH20 0xFFFFFFFFFFFFFFFFFFFFFFFFFFFFFFFFFFFFFFFF CALLER AND PUSH1 0x0 MSTORE PUSH1 0x20 MSTORE PUSH1 0xFF PUSH1 0x40 PUSH1 0x0 KECCAK256 SLOAD AND ISZERO PUSH2 0xD0E JUMPI POP JUMP JUMPDEST PUSH32 0xE2517D3F00000000000000000000000000000000000000000000000000000000 PUSH1 0x0 MSTORE CALLER PUSH1 0x4 MSTORE PUSH1 0x24 MSTORE PUSH1 0x44 PUSH1 0x0 REVERT JUMPDEST DUP1 PUSH1 0x0 MSTORE PUSH1 0x1 PUSH1 0x20 MSTORE PUSH1 0x40 PUSH1 0x0 KECCAK256 PUSH20 0xFFFFFFFFFFFFFFFFFFFFFFFFFFFFFFFFFFFFFFFF DUP4 AND PUSH1 0x0 MSTORE PUSH1 0x20 MSTORE PUSH1 0xFF PUSH1 0x40 PUSH1 0x0 KECCAK256 SLOAD AND ISZERO PUSH1 0x0 EQ PUSH2 0xE17 JUMPI DUP1 PUSH1 0x0 MSTORE PUSH1 0x1 PUSH1 0x20 MSTORE PUSH1 0x40 PUSH1 0x0 KECCAK256 PUSH20 0xFFFFFFFFFFFFFFFFFFFFFFFFFFFFFFFFFFFFFFFF DUP4 AND PUSH1 0x0 MSTORE PUSH1 0x20 MSTORE PUSH1 0x40 PUSH1 0x0 KECCAK256 PUSH1 0x1 PUSH32 0xFFFFFFFFFFFFFFFFFFFFFFFFFFFFFFFFFFFFFFFFFFFFFFFFFFFFFFFFFFFFFF00 DUP3 SLOAD AND OR SWAP1 SSTORE PUSH20 0xFFFFFFFFFFFFFFFFFFFFFFFFFFFFFFFFFFFFFFFF CALLER SWAP3 AND SWAP1 PUSH32 0x2F8788117E7EFF1D82E926EC794901D17C78024A50270940304540A733656F0D PUSH1 0x0 DUP1 LOG4 PUSH1 0x1 SWAP1 JUMP JUMPDEST POP POP PUSH1 0x0 SWAP1 JUMP JUMPDEST DUP1 PUSH1 0x0 MSTORE PUSH1 0x1 PUSH1 0x20 MSTORE PUSH1 0x40 PUSH1 0x0 KECCAK256 PUSH20 0xFFFFFFFFFFFFFFFFFFFFFFFFFFFFFFFFFFFFFFFF DUP4 AND PUSH1 0x0 MSTORE PUSH1 0x20 MSTORE PUSH1 0xFF PUSH1 0x40 PUSH1 0x0 KECCAK256 SLOAD AND PUSH1 0x0 EQ PUSH2 0xE17 JUMPI DUP1 PUSH1 0x0 MSTORE PUSH1 0x1 PUSH1 0x20 MSTORE PUSH1 0x40 PUSH1 0x0 KECCAK256 PUSH20 0xFFFFFFFFFFFFFFFFFFFFFFFFFFFFFFFFFFFFFFFF DUP4 AND PUSH1 0x0 MSTORE PUSH1 0x20 MSTORE PUSH1 0x40 PUSH1 0x0 KECCAK256 PUSH32 0xFFFFFFFFFFFFFFFFFFFFFFFFFFFFFFFFFFFFFFFFFFFFFFFFFFFFFFFFFFFFFF00 DUP2 SLOAD AND SWAP1 SSTORE PUSH20 0xFFFFFFFFFFFFFFFFFFFFFFFFFFFFFFFFFFFFFFFF CALLER SWAP3 AND SWAP1 PUSH32 0xF6391F5C32D9C69D2A47EA670B442974B53935D1EDC7FD64EB21E047A839171B PUSH1 0x0 DUP1 LOG4 PUSH1 0x1 SWAP1 JUMP JUMPDEST PUSH1 0xFF PUSH1 0x0 SLOAD AND ISZERO PUSH2 0xEFF JUMPI JUMP JUMPDEST PUSH32 0x8DFC202B00000000000000000000000000000000000000000000000000000000 PUSH1 0x0 MSTORE PUSH1 0x4 PUSH1 0x0 REVERT JUMPDEST PUSH1 0x2 DUP1 SLOAD EQ PUSH2 0xF38 JUMPI PUSH1 0x2 DUP1 SSTORE JUMP JUMPDEST PUSH32 0x3EE5AEB500000000000000000000000000000000000000000000000000000000 PUSH1 0x0 MSTORE PUSH1 0x4 PUSH1 0x0 REVERT JUMPDEST PUSH1 0xFF PUSH1 0x0 SLOAD AND PUSH2 0xF6E JUMPI JUMP JUMPDEST PUSH32 0xD93C066500000000000000000000000000000000000000000000000000000000 PUSH1 0x0 MSTORE PUSH1 0x4 PUSH1 0x0 REVERT JUMPDEST PUSH20 0xFFFFFFFFFFFFFFFFFFFFFFFFFFFFFFFFFFFFFFFF AND ISZERO PUSH2 0x1018 JUMPI ISZERO PUSH2 0xFBA JUMPI JUMP JUMPDEST PUSH1 0x64 PUSH1 0x40 MLOAD PUSH32 0x8C379A000000000000000000000000000000000000000000000000000000000 DUP2 MSTORE PUSH1 0x20 PUSH1 0x4 DUP3 ADD MSTORE PUSH1 0x16 PUSH1 0x24 DUP3 ADD MSTORE PUSH32 0x43726F776473616C653A20616D6F756E74206973203000000000000000000000 PUSH1 0x44 DUP3 ADD MSTORE REVERT JUMPDEST PUSH1 0x84 PUSH1 0x40 MLOAD PUSH32 0x8C379A000000000000000000000000000000000000000000000000000000000 DUP2 MSTORE PUSH1 0x20 PUSH1 0x4 DUP3 ADD MSTORE PUSH1 0x2A PUSH1 0x24 DUP3 ADD MSTORE PUSH32 0x43726F776473616C653A2062656E656669636961727920697320746865207A65 PUSH1 0x44 DUP3 ADD MSTORE PUSH32 0x726F206164647265737300000000000000000000000000000000000000000000 PUSH1 0x64 DUP3 ADD MSTORE REVERT JUMPDEST PUSH1 0x8 SLOAD SWAP1 SWAP3 SWAP2 SWAP1 PUSH1 0x0 SWAP1 ISZERO PUSH2 0x117D JUMPI PUSH20 0xFFFFFFFFFFFFFFFFFFFFFFFFFFFFFFFFFFFFFFFF PUSH1 0x9 SLOAD AND SWAP4 PUSH1 0x8 SLOAD SWAP5 DUP1 EXTCODESIZE ISZERO PUSH2 0x1179 JUMPI PUSH1 0x64 DUP4 SWAP3 DUP4 PUSH20 0xFFFFFFFFFFFFFFFFFFFFFFFFFFFFFFFFFFFFFFFF SWAP4 PUSH1 0x40 MLOAD SWAP10 DUP11 SWAP6 DUP7 SWAP5 PUSH32 0xF74BC9D600000000000000000000000000000000000000000000000000000000 DUP7 MSTORE AND PUSH1 0x4 DUP6 ADD MSTORE PUSH1 0x24 DUP5 ADD MSTORE DUP8 PUSH1 0x44 DUP5 ADD MSTORE GAS CALL SWAP4 DUP5 ISZERO PUSH2 0x116C JUMPI PUSH2 0x115A SWAP4 SWAP5 PUSH2 0x115C JUMPI JUMPDEST POP POP PUSH20 0xFFFFFFFFFFFFFFFFFFFFFFFFFFFFFFFFFFFFFFFF PUSH1 0x9 SLOAD AND PUSH2 0x1184 JUMP JUMPDEST JUMP JUMPDEST DUP2 PUSH2 0x1166 SWAP2 PUSH2 0x8E7 JUMP JUMPDEST CODESIZE PUSH2 0x113A JUMP JUMPDEST POP PUSH1 0x40 MLOAD SWAP1 RETURNDATASIZE SWAP1 DUP3 RETURNDATACOPY RETURNDATASIZE SWAP1 REVERT JUMPDEST DUP3 DUP1 REVERT JUMPDEST POP PUSH2 0x115A SWAP2 SWAP3 JUMPDEST PUSH20 0xFFFFFFFFFFFFFFFFFFFFFFFFFFFFFFFFFFFFFFFF PUSH1 0x44 PUSH1 0x20 SWAP3 PUSH1 0x0 DUP4 PUSH1 0x3 SLOAD AND PUSH1 0x40 MLOAD SWAP7 DUP8 SWAP6 DUP7 SWAP5 PUSH32 0xA9059CBB00000000000000000000000000000000000000000000000000000000 DUP7 MSTORE AND PUSH1 0x4 DUP6 ADD MSTORE PUSH1 0x24 DUP5 ADD MSTORE GAS CALL SWAP1 DUP2 ISZERO PUSH2 0x217 JUMPI PUSH1 0x0 SWAP2 PUSH2 0x1252 JUMPI JUMPDEST POP ISZERO PUSH2 0x11F4 JUMPI JUMP JUMPDEST PUSH1 0x64 PUSH1 0x40 MLOAD PUSH32 0x8C379A000000000000000000000000000000000000000000000000000000000 DUP2 MSTORE PUSH1 0x20 PUSH1 0x4 DUP3 ADD MSTORE PUSH1 0x15 PUSH1 0x24 DUP3 ADD MSTORE PUSH32 0x5472616E7366657220756E7375636365737366756C0000000000000000000000 PUSH1 0x44 DUP3 ADD MSTORE REVERT JUMPDEST PUSH1 0x20 DUP2 RETURNDATASIZE PUSH1 0x20 GT PUSH2 0x128C JUMPI JUMPDEST DUP2 PUSH2 0x126B PUSH1 0x20 SWAP4 DUP4 PUSH2 0x8E7 JUMP JUMPDEST DUP2 ADD SUB SLT PUSH2 0x1288 JUMPI MLOAD SWAP1 DUP2 ISZERO ISZERO DUP3 SUB PUSH2 0x1285 JUMPI POP CODESIZE PUSH2 0x11EC JUMP JUMPDEST DUP1 REVERT JUMPDEST POP DUP1 REVERT JUMPDEST RETURNDATASIZE SWAP2 POP PUSH2 0x125E JUMP INVALID LOG2 PUSH5 0x6970667358 0x22 SLT KECCAK256 0xE8 0xCC 0xCF PUSH29 0x16902EC904BE8DB02640992D37DE060300A19EF09767F3B7FB7E22A664 PUSH20 0x6F6C634300081B0033A6EEF7E35ABE7026729641 EQ PUSH32 0x7915573C7E97B47EFA546F5F6E3230263BCB4900000000000000000000000000 "},"methodIdentifiers":{"DEFAULT_ADMIN_ROLE()":"a217fddf","WHITELISTED_ROLE()":"7a3226ec","buyTokens(address)":"ec8ac4d8","externalBuyTokens(address,uint256)":"5f1c3766","fundsRaised()":"6681b9fd","getRoleAdmin(bytes32)":"248a9ca3","getTokenAmount(uint256)":"c2507ac1","getWeiAmount(uint256)":"82d5d7ac","grantRole(bytes32,address)":"2f2ff15d","hasRole(bytes32,address)":"91d14854","pause()":"8456cb59","paused()":"5c975abb","renounceRole(bytes32,address)":"36568abe","revokeRole(bytes32,address)":"d547741f","supportsInterface(bytes4)":"01ffc9a7","token()":"fc0c546a","tokensAvailable()":"60659a92","unpause()":"3f4ba83a","wallet()":"521eb273"}}}}}