{
  "contracts/ExampleVestingVault.sol": {
    "ExampleVestingVault": {
      "abi": [
        {
          "inputs": [
            {
              "internalType": "contract IERC20",
              "name": "token_",
              "type": "address"
            }
          ],
          "stateMutability": "nonpayable",
          "type": "constructor"
        },
        {
          "inputs": [],
          "name": "AccessControlBadConfirmation",
          "type": "error"
        },
        {
          "inputs": [
            {
              "internalType": "address",
              "name": "account",
              "type": "address"
            },
            {
              "internalType": "bytes32",
              "name": "neededRole",
              "type": "bytes32"
            }
          ],
          "name": "AccessControlUnauthorizedAccount",
          "type": "error"
        },
        {
          "anonymous": false,
          "inputs": [
            {
              "indexed": true,
              "internalType": "bytes32",
              "name": "role",
              "type": "bytes32"
            },
            {
              "indexed": true,
              "internalType": "bytes32",
              "name": "previousAdminRole",
              "type": "bytes32"
            },
            {
              "indexed": true,
              "internalType": "bytes32",
              "name": "newAdminRole",
              "type": "bytes32"
            }
          ],
          "name": "RoleAdminChanged",
          "type": "event"
        },
        {
          "anonymous": false,
          "inputs": [
            {
              "indexed": true,
              "internalType": "bytes32",
              "name": "role",
              "type": "bytes32"
            },
            {
              "indexed": true,
              "internalType": "address",
              "name": "account",
              "type": "address"
            },
            {
              "indexed": true,
              "internalType": "address",
              "name": "sender",
              "type": "address"
            }
          ],
          "name": "RoleGranted",
          "type": "event"
        },
        {
          "anonymous": false,
          "inputs": [
            {
              "indexed": true,
              "internalType": "bytes32",
              "name": "role",
              "type": "bytes32"
            },
            {
              "indexed": true,
              "internalType": "address",
              "name": "account",
              "type": "address"
            },
            {
              "indexed": true,
              "internalType": "address",
              "name": "sender",
              "type": "address"
            }
          ],
          "name": "RoleRevoked",
          "type": "event"
        },
        {
          "anonymous": false,
          "inputs": [
            {
              "indexed": true,
              "internalType": "address",
              "name": "beneficiary",
              "type": "address"
            },
            {
              "indexed": false,
              "internalType": "uint256",
              "name": "releaseTime",
              "type": "uint256"
            },
            {
              "indexed": false,
              "internalType": "uint256",
              "name": "tokenAmount",
              "type": "uint256"
            }
          ],
          "name": "VestingLockedIn",
          "type": "event"
        },
        {
          "anonymous": false,
          "inputs": [
            {
              "indexed": true,
              "internalType": "address",
              "name": "beneficiary",
              "type": "address"
            },
            {
              "indexed": false,
              "internalType": "uint256",
              "name": "releaseTime",
              "type": "uint256"
            },
            {
              "indexed": false,
              "internalType": "uint256",
              "name": "tokenAmount",
              "type": "uint256"
            }
          ],
          "name": "VestingReleased",
          "type": "event"
        },
        {
          "inputs": [],
          "name": "DEFAULT_ADMIN_ROLE",
          "outputs": [
            {
              "internalType": "bytes32",
              "name": "",
              "type": "bytes32"
            }
          ],
          "stateMutability": "view",
          "type": "function"
        },
        {
          "inputs": [],
          "name": "VAULT_CONTROLLER_ROLE",
          "outputs": [
            {
              "internalType": "bytes32",
              "name": "",
              "type": "bytes32"
            }
          ],
          "stateMutability": "view",
          "type": "function"
        },
        {
          "inputs": [
            {
              "internalType": "address",
              "name": "beneficiary_",
              "type": "address"
            },
            {
              "internalType": "uint256",
              "name": "releaseTime_",
              "type": "uint256"
            },
            {
              "internalType": "uint256",
              "name": "tokenAmount_",
              "type": "uint256"
            }
          ],
          "name": "addBeneficiary",
          "outputs": [],
          "stateMutability": "nonpayable",
          "type": "function"
        },
        {
          "inputs": [
            {
              "internalType": "bytes32",
              "name": "role",
              "type": "bytes32"
            }
          ],
          "name": "getRoleAdmin",
          "outputs": [
            {
              "internalType": "bytes32",
              "name": "",
              "type": "bytes32"
            }
          ],
          "stateMutability": "view",
          "type": "function"
        },
        {
          "inputs": [
            {
              "internalType": "bytes32",
              "name": "role",
              "type": "bytes32"
            },
            {
              "internalType": "address",
              "name": "account",
              "type": "address"
            }
          ],
          "name": "grantRole",
          "outputs": [],
          "stateMutability": "nonpayable",
          "type": "function"
        },
        {
          "inputs": [
            {
              "internalType": "bytes32",
              "name": "role",
              "type": "bytes32"
            },
            {
              "internalType": "address",
              "name": "account",
              "type": "address"
            }
          ],
          "name": "hasRole",
          "outputs": [
            {
              "internalType": "bool",
              "name": "",
              "type": "bool"
            }
          ],
          "stateMutability": "view",
          "type": "function"
        },
        {
          "inputs": [],
          "name": "release",
          "outputs": [],
          "stateMutability": "nonpayable",
          "type": "function"
        },
        {
          "inputs": [
            {
              "internalType": "bytes32",
              "name": "role",
              "type": "bytes32"
            },
            {
              "internalType": "address",
              "name": "callerConfirmation",
              "type": "address"
            }
          ],
          "name": "renounceRole",
          "outputs": [],
          "stateMutability": "nonpayable",
          "type": "function"
        },
        {
          "inputs": [
            {
              "internalType": "bytes32",
              "name": "role",
              "type": "bytes32"
            },
            {
              "internalType": "address",
              "name": "account",
              "type": "address"
            }
          ],
          "name": "revokeRole",
          "outputs": [],
          "stateMutability": "nonpayable",
          "type": "function"
        },
        {
          "inputs": [
            {
              "internalType": "bytes4",
              "name": "interfaceId",
              "type": "bytes4"
            }
          ],
          "name": "supportsInterface",
          "outputs": [
            {
              "internalType": "bool",
              "name": "",
              "type": "bool"
            }
          ],
          "stateMutability": "view",
          "type": "function"
        },
        {
          "inputs": [],
          "name": "token",
          "outputs": [
            {
              "internalType": "contract IERC20",
              "name": "",
              "type": "address"
            }
          ],
          "stateMutability": "view",
          "type": "function"
        },
        {
          "inputs": [
            {
              "internalType": "address",
              "name": "beneficiary_",
              "type": "address"
            }
          ],
          "name": "vestingFor",
          "outputs": [
            {
              "components": [
                {
                  "internalType": "address",
                  "name": "beneficiary",
                  "type": "address"
                },
                {
                  "internalType": "uint256",
                  "name": "releaseTime",
                  "type": "uint256"
                },
                {
                  "internalType": "uint256",
                  "name": "tokenAmount",
                  "type": "uint256"
                }
              ],
              "internalType": "struct IVestingVault.Vesting[]",
              "name": "",
              "type": "tuple[]"
            }
          ],
          "stateMutability": "view",
          "type": "function"
        }
      ],
      "evm": {
        "bytecode": {
          "linkReferences": {},
          "object": "60a0346100f157601f61108038819003918201601f19168301916001600160401b038311848410176100f6578084926020946040528339810103126100f157516001600160a01b03811681036100f15760805261005b3361010c565b507f9872d9a33a826e6fa63de183f4672fa7578a62703fcc3dcc926810a2b5a12fd9600081815260208190527f18b789f689298f9861c64acec43fb83a444fe0a0d93f282ad4f66651300c99a5805490829055604051927fbd79b86ffe0ab8e8776151514217cd7cacd52c909f66475c3af44e129f0b00ff8380a4610ec5908161019b823960805181818160d001526105490152f35b600080fd5b634e487b7160e01b600052604160045260246000fd5b6001600160a01b0381166000908152600080516020611060833981519152602052604090205460ff16610194576001600160a01b0316600081815260008051602061106083398151915260205260408120805460ff191660011790553391907f2f8788117e7eff1d82e926ec794901d17c78024a50270940304540a733656f0d8180a4600190565b5060009056fe608080604052600436101561001357600080fd5b60003560e01c90816301ffc9a71461081b57508063248a9ca3146107e65780632f2ff15d146107a657806336568abe1461073a578063704e2b2d146106ff57806386d1a69f146103d657806391d148541461037b578063a217fddf1461035f578063d547741f1461031a578063f4753b38146101ae578063f74bc9d6146100f95763fc0c546a146100a357600080fd5b346100f45760006003193601126100f457602060405173ffffffffffffffffffffffffffffffffffffffff7f0000000000000000000000000000000000000000000000000000000000000000168152f35b600080fd5b346100f45760606003193601126100f45761011261090f565b3360009081527f18b789f689298f9861c64acec43fb83a444fe0a0d93f282ad4f66651300c99a4602052604090205460ff161561015c5761015a906044359060243590610a2a565b005b7fe2517d3f00000000000000000000000000000000000000000000000000000000600052336004527f9872d9a33a826e6fa63de183f4672fa7578a62703fcc3dcc926810a2b5a12fd960245260446000fd5b346100f45760206003193601126100f45773ffffffffffffffffffffffffffffffffffffffff6101dc61090f565b166000526001602052604060002080549067ffffffffffffffff82116102eb576040519161021060208260051b018461094e565b80835260208301809260005260206000206000915b83831061029e5784866040519182916020830190602084525180915260408301919060005b818110610258575050500390f35b91935091602060606001926040875173ffffffffffffffffffffffffffffffffffffffff815116835284810151858401520151604082015201940191019184939261024a565b600360206001926040516102b181610932565b73ffffffffffffffffffffffffffffffffffffffff8654168152848601548382015260028601546040820152815201920192019190610225565b7f4e487b7100000000000000000000000000000000000000000000000000000000600052604160045260246000fd5b346100f45760406003193601126100f45761015a6004356103396108ec565b9061035a61035582600052600060205260016040600020015490565b610c6f565b610dbb565b346100f45760006003193601126100f457602060405160008152f35b346100f45760406003193601126100f4576103946108ec565b600435600052600060205273ffffffffffffffffffffffffffffffffffffffff60406000209116600052602052602060ff604060002054166040519015158152f35b346100f45760006003193601126100f4573360005260016020526040600020805467ffffffffffffffff81116102eb576040519161041a60208360051b018461094e565b818352602083019060005260206000206000915b8383106106b257600085815b81518110156104f157426020610450838561098f565b5101511115610462575b60010161043a565b9161047e6001916040610475868661098f565b510151906109d2565b92602061048b828561098f565b510151604061049a838661098f565b51015160405191825260208201527fc35bc0b152cc4084b62942d2235605f7e5db6fc6217bc7ef532ba71acf7a58ce60403392a23360005281602052600060026104e78360408420610a0e565b500155905061045a565b82801561062e57604051907fa9059cbb0000000000000000000000000000000000000000000000000000000082523360048301526024820152602081604481600073ffffffffffffffffffffffffffffffffffffffff7f0000000000000000000000000000000000000000000000000000000000000000165af1908115610622576000916105e0575b501561058257005b60646040517f08c379a000000000000000000000000000000000000000000000000000000000815260206004820152601b60248201527f546f6b656e207472616e7366657220756e7375636365737366756c00000000006044820152fd5b6020813d60201161061a575b816105f96020938361094e565b81010312610616575190811515820361061357508161057a565b80fd5b5080fd5b3d91506105ec565b6040513d6000823e3d90fd5b60846040517f08c379a000000000000000000000000000000000000000000000000000000000815260206004820152602560248201527f56657374696e675661756c743a2043616e6e6f742072656c656173652030207460448201527f6f6b656e730000000000000000000000000000000000000000000000000000006064820152fd5b600360206001926040516106c581610932565b73ffffffffffffffffffffffffffffffffffffffff865416815284860154838201526002860154604082015281520192019201919061042e565b346100f45760006003193601126100f45760206040517f9872d9a33a826e6fa63de183f4672fa7578a62703fcc3dcc926810a2b5a12fd98152f35b346100f45760406003193601126100f4576107536108ec565b3373ffffffffffffffffffffffffffffffffffffffff82160361077c5761015a90600435610dbb565b7f6697b2320000000000000000000000000000000000000000000000000000000060005260046000fd5b346100f45760406003193601126100f45761015a6004356107c56108ec565b906107e161035582600052600060205260016040600020015490565b610cdc565b346100f45760206003193601126100f4576020610813600435600052600060205260016040600020015490565b604051908152f35b346100f45760206003193601126100f457600435907fffffffff0000000000000000000000000000000000000000000000000000000082168092036100f457817f79e3001b000000000000000000000000000000000000000000000000000000006020931490811561088f575b5015158152f35b7f7965db0b000000000000000000000000000000000000000000000000000000008114915081156108c2575b5083610888565b7f01ffc9a700000000000000000000000000000000000000000000000000000000915014836108bb565b6024359073ffffffffffffffffffffffffffffffffffffffff821682036100f457565b6004359073ffffffffffffffffffffffffffffffffffffffff821682036100f457565b6060810190811067ffffffffffffffff8211176102eb57604052565b90601f7fffffffffffffffffffffffffffffffffffffffffffffffffffffffffffffffe0910116810190811067ffffffffffffffff8211176102eb57604052565b80518210156109a35760209160051b010190565b7f4e487b7100000000000000000000000000000000000000000000000000000000600052603260045260246000fd5b919082018092116109df57565b7f4e487b7100000000000000000000000000000000000000000000000000000000600052601160045260246000fd5b80548210156109a3576000526003602060002091020190600090565b73ffffffffffffffffffffffffffffffffffffffff1690816000526001602052604060002092835467ffffffffffffffff81116102eb5760405194610a7560208360051b018761094e565b818652602086019060005260206000206000915b838310610c22575050505060005b8451811015610b19576020610aac828761098f565b5101518314610abd57600101610a97565b839450906002610afd604094937f970b25b911957fbf97ef28d72fcbb6175e7b3b97729a26ef75ce09e4a72c0fac96600052600160205285600020610a0e565b5001610b0a8282546109d2565b905582519182526020820152a2565b509091925082600052600160205260406000209160405191610b3a83610932565b848352602083019282845260408101948286528054680100000000000000008110156102eb57610b6f91600182018155610a0e565b919091610bf3577f970b25b911957fbf97ef28d72fcbb6175e7b3b97729a26ef75ce09e4a72c0fac9560409573ffffffffffffffffffffffffffffffffffffffff60029351167fffffffffffffffffffffffff00000000000000000000000000000000000000008554161784555160018401555191015582519182526020820152a2565b7f4e487b7100000000000000000000000000000000000000000000000000000000600052600060045260246000fd5b60036020600192604051610c3581610932565b73ffffffffffffffffffffffffffffffffffffffff8654168152848601548382015260028601546040820152815201920192019190610a89565b806000526000602052604060002073ffffffffffffffffffffffffffffffffffffffff331660005260205260ff6040600020541615610cab5750565b7fe2517d3f000000000000000000000000000000000000000000000000000000006000523360045260245260446000fd5b806000526000602052604060002073ffffffffffffffffffffffffffffffffffffffff831660005260205260ff6040600020541615600014610db457806000526000602052604060002073ffffffffffffffffffffffffffffffffffffffff8316600052602052604060002060017fffffffffffffffffffffffffffffffffffffffffffffffffffffffffffffff0082541617905573ffffffffffffffffffffffffffffffffffffffff339216907f2f8788117e7eff1d82e926ec794901d17c78024a50270940304540a733656f0d600080a4600190565b5050600090565b806000526000602052604060002073ffffffffffffffffffffffffffffffffffffffff831660005260205260ff60406000205416600014610db457806000526000602052604060002073ffffffffffffffffffffffffffffffffffffffff831660005260205260406000207fffffffffffffffffffffffffffffffffffffffffffffffffffffffffffffff00815416905573ffffffffffffffffffffffffffffffffffffffff339216907ff6391f5c32d9c69d2a47ea670b442974b53935d1edc7fd64eb21e047a839171b600080a460019056fea2646970667358221220a62ec9381d874f9c86cf13210d83de078a9a2d2c6de0b871905d7e9cdb9e936664736f6c634300081b0033ad3228b676f7d3cd4284a5443f17f1962b36e491b30a40b2405849e597ba5fb5",
          "opcodes": "PUSH1 0xA0 CALLVALUE PUSH2 0xF1 JUMPI PUSH1 0x1F PUSH2 0x1080 CODESIZE DUP2 SWAP1 SUB SWAP2 DUP3 ADD PUSH1 0x1F NOT AND DUP4 ADD SWAP2 PUSH1 0x1 PUSH1 0x1 PUSH1 0x40 SHL SUB DUP4 GT DUP5 DUP5 LT OR PUSH2 0xF6 JUMPI DUP1 DUP5 SWAP3 PUSH1 0x20 SWAP5 PUSH1 0x40 MSTORE DUP4 CODECOPY DUP2 ADD SUB SLT PUSH2 0xF1 JUMPI MLOAD PUSH1 0x1 PUSH1 0x1 PUSH1 0xA0 SHL SUB DUP2 AND DUP2 SUB PUSH2 0xF1 JUMPI PUSH1 0x80 MSTORE PUSH2 0x5B CALLER PUSH2 0x10C JUMP JUMPDEST POP PUSH32 0x9872D9A33A826E6FA63DE183F4672FA7578A62703FCC3DCC926810A2B5A12FD9 PUSH1 0x0 DUP2 DUP2 MSTORE PUSH1 0x20 DUP2 SWAP1 MSTORE PUSH32 0x18B789F689298F9861C64ACEC43FB83A444FE0A0D93F282AD4F66651300C99A5 DUP1 SLOAD SWAP1 DUP3 SWAP1 SSTORE PUSH1 0x40 MLOAD SWAP3 PUSH32 0xBD79B86FFE0AB8E8776151514217CD7CACD52C909F66475C3AF44E129F0B00FF DUP4 DUP1 LOG4 PUSH2 0xEC5 SWAP1 DUP2 PUSH2 0x19B DUP3 CODECOPY PUSH1 0x80 MLOAD DUP2 DUP2 DUP2 PUSH1 0xD0 ADD MSTORE PUSH2 0x549 ADD MSTORE RETURN JUMPDEST PUSH1 0x0 DUP1 REVERT JUMPDEST PUSH4 0x4E487B71 PUSH1 0xE0 SHL PUSH1 0x0 MSTORE PUSH1 0x41 PUSH1 0x4 MSTORE PUSH1 0x24 PUSH1 0x0 REVERT JUMPDEST PUSH1 0x1 PUSH1 0x1 PUSH1 0xA0 SHL SUB DUP2 AND PUSH1 0x0 SWAP1 DUP2 MSTORE PUSH1 0x0 DUP1 MLOAD PUSH1 0x20 PUSH2 0x1060 DUP4 CODECOPY DUP2 MLOAD SWAP2 MSTORE PUSH1 0x20 MSTORE PUSH1 0x40 SWAP1 KECCAK256 SLOAD PUSH1 0xFF AND PUSH2 0x194 JUMPI PUSH1 0x1 PUSH1 0x1 PUSH1 0xA0 SHL SUB AND PUSH1 0x0 DUP2 DUP2 MSTORE PUSH1 0x0 DUP1 MLOAD PUSH1 0x20 PUSH2 0x1060 DUP4 CODECOPY DUP2 MLOAD SWAP2 MSTORE PUSH1 0x20 MSTORE PUSH1 0x40 DUP2 KECCAK256 DUP1 SLOAD PUSH1 0xFF NOT AND PUSH1 0x1 OR SWAP1 SSTORE CALLER SWAP2 SWAP1 PUSH32 0x2F8788117E7EFF1D82E926EC794901D17C78024A50270940304540A733656F0D DUP2 DUP1 LOG4 PUSH1 0x1 SWAP1 JUMP JUMPDEST POP PUSH1 0x0 SWAP1 JUMP INVALID PUSH1 0x80 DUP1 PUSH1 0x40 MSTORE PUSH1 0x4 CALLDATASIZE LT ISZERO PUSH2 0x13 JUMPI PUSH1 0x0 DUP1 REVERT JUMPDEST PUSH1 0x0 CALLDATALOAD PUSH1 0xE0 SHR SWAP1 DUP2 PUSH4 0x1FFC9A7 EQ PUSH2 0x81B JUMPI POP DUP1 PUSH4 0x248A9CA3 EQ PUSH2 0x7E6 JUMPI DUP1 PUSH4 0x2F2FF15D EQ PUSH2 0x7A6 JUMPI DUP1 PUSH4 0x36568ABE EQ PUSH2 0x73A JUMPI DUP1 PUSH4 0x704E2B2D EQ PUSH2 0x6FF JUMPI DUP1 PUSH4 0x86D1A69F EQ PUSH2 0x3D6 JUMPI DUP1 PUSH4 0x91D14854 EQ PUSH2 0x37B JUMPI DUP1 PUSH4 0xA217FDDF EQ PUSH2 0x35F JUMPI DUP1 PUSH4 0xD547741F EQ PUSH2 0x31A JUMPI DUP1 PUSH4 0xF4753B38 EQ PUSH2 0x1AE JUMPI DUP1 PUSH4 0xF74BC9D6 EQ PUSH2 0xF9 JUMPI PUSH4 0xFC0C546A EQ PUSH2 0xA3 JUMPI PUSH1 0x0 DUP1 REVERT JUMPDEST CALLVALUE PUSH2 0xF4 JUMPI PUSH1 0x0 PUSH1 0x3 NOT CALLDATASIZE ADD SLT PUSH2 0xF4 JUMPI PUSH1 0x20 PUSH1 0x40 MLOAD PUSH20 0xFFFFFFFFFFFFFFFFFFFFFFFFFFFFFFFFFFFFFFFF PUSH32 0x0 AND DUP2 MSTORE RETURN JUMPDEST PUSH1 0x0 DUP1 REVERT JUMPDEST CALLVALUE PUSH2 0xF4 JUMPI PUSH1 0x60 PUSH1 0x3 NOT CALLDATASIZE ADD SLT PUSH2 0xF4 JUMPI PUSH2 0x112 PUSH2 0x90F JUMP JUMPDEST CALLER PUSH1 0x0 SWAP1 DUP2 MSTORE PUSH32 0x18B789F689298F9861C64ACEC43FB83A444FE0A0D93F282AD4F66651300C99A4 PUSH1 0x20 MSTORE PUSH1 0x40 SWAP1 KECCAK256 SLOAD PUSH1 0xFF AND ISZERO PUSH2 0x15C JUMPI PUSH2 0x15A SWAP1 PUSH1 0x44 CALLDATALOAD SWAP1 PUSH1 0x24 CALLDATALOAD SWAP1 PUSH2 0xA2A JUMP JUMPDEST STOP JUMPDEST PUSH32 0xE2517D3F00000000000000000000000000000000000000000000000000000000 PUSH1 0x0 MSTORE CALLER PUSH1 0x4 MSTORE PUSH32 0x9872D9A33A826E6FA63DE183F4672FA7578A62703FCC3DCC926810A2B5A12FD9 PUSH1 0x24 MSTORE PUSH1 0x44 PUSH1 0x0 REVERT JUMPDEST CALLVALUE PUSH2 0xF4 JUMPI PUSH1 0x20 PUSH1 0x3 NOT CALLDATASIZE ADD SLT PUSH2 0xF4 JUMPI PUSH20 0xFFFFFFFFFFFFFFFFFFFFFFFFFFFFFFFFFFFFFFFF PUSH2 0x1DC PUSH2 0x90F JUMP JUMPDEST AND PUSH1 0x0 MSTORE PUSH1 0x1 PUSH1 0x20 MSTORE PUSH1 0x40 PUSH1 0x0 KECCAK256 DUP1 SLOAD SWAP1 PUSH8 0xFFFFFFFFFFFFFFFF DUP3 GT PUSH2 0x2EB JUMPI PUSH1 0x40 MLOAD SWAP2 PUSH2 0x210 PUSH1 0x20 DUP3 PUSH1 0x5 SHL ADD DUP5 PUSH2 0x94E JUMP JUMPDEST DUP1 DUP4 MSTORE PUSH1 0x20 DUP4 ADD DUP1 SWAP3 PUSH1 0x0 MSTORE PUSH1 0x20 PUSH1 0x0 KECCAK256 PUSH1 0x0 SWAP2 JUMPDEST DUP4 DUP4 LT PUSH2 0x29E JUMPI DUP5 DUP7 PUSH1 0x40 MLOAD SWAP2 DUP3 SWAP2 PUSH1 0x20 DUP4 ADD SWAP1 PUSH1 0x20 DUP5 MSTORE MLOAD DUP1 SWAP2 MSTORE PUSH1 0x40 DUP4 ADD SWAP2 SWAP1 PUSH1 0x0 JUMPDEST DUP2 DUP2 LT PUSH2 0x258 JUMPI POP POP POP SUB SWAP1 RETURN JUMPDEST SWAP2 SWAP4 POP SWAP2 PUSH1 0x20 PUSH1 0x60 PUSH1 0x1 SWAP3 PUSH1 0x40 DUP8 MLOAD PUSH20 0xFFFFFFFFFFFFFFFFFFFFFFFFFFFFFFFFFFFFFFFF DUP2 MLOAD AND DUP4 MSTORE DUP5 DUP2 ADD MLOAD DUP6 DUP5 ADD MSTORE ADD MLOAD PUSH1 0x40 DUP3 ADD MSTORE ADD SWAP5 ADD SWAP2 ADD SWAP2 DUP5 SWAP4 SWAP3 PUSH2 0x24A JUMP JUMPDEST PUSH1 0x3 PUSH1 0x20 PUSH1 0x1 SWAP3 PUSH1 0x40 MLOAD PUSH2 0x2B1 DUP2 PUSH2 0x932 JUMP JUMPDEST PUSH20 0xFFFFFFFFFFFFFFFFFFFFFFFFFFFFFFFFFFFFFFFF DUP7 SLOAD AND DUP2 MSTORE DUP5 DUP7 ADD SLOAD DUP4 DUP3 ADD MSTORE PUSH1 0x2 DUP7 ADD SLOAD PUSH1 0x40 DUP3 ADD MSTORE DUP2 MSTORE ADD SWAP3 ADD SWAP3 ADD SWAP2 SWAP1 PUSH2 0x225 JUMP JUMPDEST PUSH32 0x4E487B7100000000000000000000000000000000000000000000000000000000 PUSH1 0x0 MSTORE PUSH1 0x41 PUSH1 0x4 MSTORE PUSH1 0x24 PUSH1 0x0 REVERT JUMPDEST CALLVALUE PUSH2 0xF4 JUMPI PUSH1 0x40 PUSH1 0x3 NOT CALLDATASIZE ADD SLT PUSH2 0xF4 JUMPI PUSH2 0x15A PUSH1 0x4 CALLDATALOAD PUSH2 0x339 PUSH2 0x8EC JUMP JUMPDEST SWAP1 PUSH2 0x35A PUSH2 0x355 DUP3 PUSH1 0x0 MSTORE PUSH1 0x0 PUSH1 0x20 MSTORE PUSH1 0x1 PUSH1 0x40 PUSH1 0x0 KECCAK256 ADD SLOAD SWAP1 JUMP JUMPDEST PUSH2 0xC6F JUMP JUMPDEST PUSH2 0xDBB JUMP JUMPDEST CALLVALUE PUSH2 0xF4 JUMPI PUSH1 0x0 PUSH1 0x3 NOT CALLDATASIZE ADD SLT PUSH2 0xF4 JUMPI PUSH1 0x20 PUSH1 0x40 MLOAD PUSH1 0x0 DUP2 MSTORE RETURN JUMPDEST CALLVALUE PUSH2 0xF4 JUMPI PUSH1 0x40 PUSH1 0x3 NOT CALLDATASIZE ADD SLT PUSH2 0xF4 JUMPI PUSH2 0x394 PUSH2 0x8EC JUMP JUMPDEST PUSH1 0x4 CALLDATALOAD PUSH1 0x0 MSTORE PUSH1 0x0 PUSH1 0x20 MSTORE PUSH20 0xFFFFFFFFFFFFFFFFFFFFFFFFFFFFFFFFFFFFFFFF PUSH1 0x40 PUSH1 0x0 KECCAK256 SWAP2 AND PUSH1 0x0 MSTORE PUSH1 0x20 MSTORE PUSH1 0x20 PUSH1 0xFF PUSH1 0x40 PUSH1 0x0 KECCAK256 SLOAD AND PUSH1 0x40 MLOAD SWAP1 ISZERO ISZERO DUP2 MSTORE RETURN JUMPDEST CALLVALUE PUSH2 0xF4 JUMPI PUSH1 0x0 PUSH1 0x3 NOT CALLDATASIZE ADD SLT PUSH2 0xF4 JUMPI CALLER PUSH1 0x0 MSTORE PUSH1 0x1 PUSH1 0x20 MSTORE PUSH1 0x40 PUSH1 0x0 KECCAK256 DUP1 SLOAD PUSH8 0xFFFFFFFFFFFFFFFF DUP2 GT PUSH2 0x2EB JUMPI PUSH1 0x40 MLOAD SWAP2 PUSH2 0x41A PUSH1 0x20 DUP4 PUSH1 0x5 SHL ADD DUP5 PUSH2 0x94E JUMP JUMPDEST DUP2 DUP4 MSTORE PUSH1 0x20 DUP4 ADD SWAP1 PUSH1 0x0 MSTORE PUSH1 0x20 PUSH1 0x0 KECCAK256 PUSH1 0x0 SWAP2 JUMPDEST DUP4 DUP4 LT PUSH2 0x6B2 JUMPI PUSH1 0x0 DUP6 DUP2 JUMPDEST DUP2 MLOAD DUP2 LT ISZERO PUSH2 0x4F1 JUMPI TIMESTAMP PUSH1 0x20 PUSH2 0x450 DUP4 DUP6 PUSH2 0x98F JUMP JUMPDEST MLOAD ADD MLOAD GT ISZERO PUSH2 0x462 JUMPI JUMPDEST PUSH1 0x1 ADD PUSH2 0x43A JUMP JUMPDEST SWAP2 PUSH2 0x47E PUSH1 0x1 SWAP2 PUSH1 0x40 PUSH2 0x475 DUP7 DUP7 PUSH2 0x98F JUMP JUMPDEST MLOAD ADD MLOAD SWAP1 PUSH2 0x9D2 JUMP JUMPDEST SWAP3 PUSH1 0x20 PUSH2 0x48B DUP3 DUP6 PUSH2 0x98F JUMP JUMPDEST MLOAD ADD MLOAD PUSH1 0x40 PUSH2 0x49A DUP4 DUP7 PUSH2 0x98F JUMP JUMPDEST MLOAD ADD MLOAD PUSH1 0x40 MLOAD SWAP2 DUP3 MSTORE PUSH1 0x20 DUP3 ADD MSTORE PUSH32 0xC35BC0B152CC4084B62942D2235605F7E5DB6FC6217BC7EF532BA71ACF7A58CE PUSH1 0x40 CALLER SWAP3 LOG2 CALLER PUSH1 0x0 MSTORE DUP2 PUSH1 0x20 MSTORE PUSH1 0x0 PUSH1 0x2 PUSH2 0x4E7 DUP4 PUSH1 0x40 DUP5 KECCAK256 PUSH2 0xA0E JUMP JUMPDEST POP ADD SSTORE SWAP1 POP PUSH2 0x45A JUMP JUMPDEST DUP3 DUP1 ISZERO PUSH2 0x62E JUMPI PUSH1 0x40 MLOAD SWAP1 PUSH32 0xA9059CBB00000000000000000000000000000000000000000000000000000000 DUP3 MSTORE CALLER PUSH1 0x4 DUP4 ADD MSTORE PUSH1 0x24 DUP3 ADD MSTORE PUSH1 0x20 DUP2 PUSH1 0x44 DUP2 PUSH1 0x0 PUSH20 0xFFFFFFFFFFFFFFFFFFFFFFFFFFFFFFFFFFFFFFFF PUSH32 0x0 AND GAS CALL SWAP1 DUP2 ISZERO PUSH2 0x622 JUMPI PUSH1 0x0 SWAP2 PUSH2 0x5E0 JUMPI JUMPDEST POP ISZERO PUSH2 0x582 JUMPI STOP JUMPDEST PUSH1 0x64 PUSH1 0x40 MLOAD PUSH32 0x8C379A000000000000000000000000000000000000000000000000000000000 DUP2 MSTORE PUSH1 0x20 PUSH1 0x4 DUP3 ADD MSTORE PUSH1 0x1B PUSH1 0x24 DUP3 ADD MSTORE PUSH32 0x546F6B656E207472616E7366657220756E7375636365737366756C0000000000 PUSH1 0x44 DUP3 ADD MSTORE REVERT JUMPDEST PUSH1 0x20 DUP2 RETURNDATASIZE PUSH1 0x20 GT PUSH2 0x61A JUMPI JUMPDEST DUP2 PUSH2 0x5F9 PUSH1 0x20 SWAP4 DUP4 PUSH2 0x94E JUMP JUMPDEST DUP2 ADD SUB SLT PUSH2 0x616 JUMPI MLOAD SWAP1 DUP2 ISZERO ISZERO DUP3 SUB PUSH2 0x613 JUMPI POP DUP2 PUSH2 0x57A JUMP JUMPDEST DUP1 REVERT JUMPDEST POP DUP1 REVERT JUMPDEST RETURNDATASIZE SWAP2 POP PUSH2 0x5EC JUMP JUMPDEST PUSH1 0x40 MLOAD RETURNDATASIZE PUSH1 0x0 DUP3 RETURNDATACOPY RETURNDATASIZE SWAP1 REVERT JUMPDEST PUSH1 0x84 PUSH1 0x40 MLOAD PUSH32 0x8C379A000000000000000000000000000000000000000000000000000000000 DUP2 MSTORE PUSH1 0x20 PUSH1 0x4 DUP3 ADD MSTORE PUSH1 0x25 PUSH1 0x24 DUP3 ADD MSTORE PUSH32 0x56657374696E675661756C743A2043616E6E6F742072656C6561736520302074 PUSH1 0x44 DUP3 ADD MSTORE PUSH32 0x6F6B656E73000000000000000000000000000000000000000000000000000000 PUSH1 0x64 DUP3 ADD MSTORE REVERT JUMPDEST PUSH1 0x3 PUSH1 0x20 PUSH1 0x1 SWAP3 PUSH1 0x40 MLOAD PUSH2 0x6C5 DUP2 PUSH2 0x932 JUMP JUMPDEST PUSH20 0xFFFFFFFFFFFFFFFFFFFFFFFFFFFFFFFFFFFFFFFF DUP7 SLOAD AND DUP2 MSTORE DUP5 DUP7 ADD SLOAD DUP4 DUP3 ADD MSTORE PUSH1 0x2 DUP7 ADD SLOAD PUSH1 0x40 DUP3 ADD MSTORE DUP2 MSTORE ADD SWAP3 ADD SWAP3 ADD SWAP2 SWAP1 PUSH2 0x42E JUMP JUMPDEST CALLVALUE PUSH2 0xF4 JUMPI PUSH1 0x0 PUSH1 0x3 NOT CALLDATASIZE ADD SLT PUSH2 0xF4 JUMPI PUSH1 0x20 PUSH1 0x40 MLOAD PUSH32 0x9872D9A33A826E6FA63DE183F4672FA7578A62703FCC3DCC926810A2B5A12FD9 DUP2 MSTORE RETURN JUMPDEST CALLVALUE PUSH2 0xF4 JUMPI PUSH1 0x40 PUSH1 0x3 NOT CALLDATASIZE ADD SLT PUSH2 0xF4 JUMPI PUSH2 0x753 PUSH2 0x8EC JUMP JUMPDEST CALLER PUSH20 0xFFFFFFFFFFFFFFFFFFFFFFFFFFFFFFFFFFFFFFFF DUP3 AND SUB PUSH2 0x77C JUMPI PUSH2 0x15A SWAP1 PUSH1 0x4 CALLDATALOAD PUSH2 0xDBB JUMP JUMPDEST PUSH32 0x6697B23200000000000000000000000000000000000000000000000000000000 PUSH1 0x0 MSTORE PUSH1 0x4 PUSH1 0x0 REVERT JUMPDEST CALLVALUE PUSH2 0xF4 JUMPI PUSH1 0x40 PUSH1 0x3 NOT CALLDATASIZE ADD SLT PUSH2 0xF4 JUMPI PUSH2 0x15A PUSH1 0x4 CALLDATALOAD PUSH2 0x7C5 PUSH2 0x8EC JUMP JUMPDEST SWAP1 PUSH2 0x7E1 PUSH2 0x355 DUP3 PUSH1 0x0 MSTORE PUSH1 0x0 PUSH1 0x20 MSTORE PUSH1 0x1 PUSH1 0x40 PUSH1 0x0 KECCAK256 ADD SLOAD SWAP1 JUMP JUMPDEST PUSH2 0xCDC JUMP JUMPDEST CALLVALUE PUSH2 0xF4 JUMPI PUSH1 0x20 PUSH1 0x3 NOT CALLDATASIZE ADD SLT PUSH2 0xF4 JUMPI PUSH1 0x20 PUSH2 0x813 PUSH1 0x4 CALLDATALOAD PUSH1 0x0 MSTORE PUSH1 0x0 PUSH1 0x20 MSTORE PUSH1 0x1 PUSH1 0x40 PUSH1 0x0 KECCAK256 ADD SLOAD SWAP1 JUMP JUMPDEST PUSH1 0x40 MLOAD SWAP1 DUP2 MSTORE RETURN JUMPDEST CALLVALUE PUSH2 0xF4 JUMPI PUSH1 0x20 PUSH1 0x3 NOT CALLDATASIZE ADD SLT PUSH2 0xF4 JUMPI PUSH1 0x4 CALLDATALOAD SWAP1 PUSH32 0xFFFFFFFF00000000000000000000000000000000000000000000000000000000 DUP3 AND DUP1 SWAP3 SUB PUSH2 0xF4 JUMPI DUP2 PUSH32 0x79E3001B00000000000000000000000000000000000000000000000000000000 PUSH1 0x20 SWAP4 EQ SWAP1 DUP2 ISZERO PUSH2 0x88F JUMPI JUMPDEST POP ISZERO ISZERO DUP2 MSTORE RETURN JUMPDEST PUSH32 0x7965DB0B00000000000000000000000000000000000000000000000000000000 DUP2 EQ SWAP2 POP DUP2 ISZERO PUSH2 0x8C2 JUMPI JUMPDEST POP DUP4 PUSH2 0x888 JUMP JUMPDEST PUSH32 0x1FFC9A700000000000000000000000000000000000000000000000000000000 SWAP2 POP EQ DUP4 PUSH2 0x8BB JUMP JUMPDEST PUSH1 0x24 CALLDATALOAD SWAP1 PUSH20 0xFFFFFFFFFFFFFFFFFFFFFFFFFFFFFFFFFFFFFFFF DUP3 AND DUP3 SUB PUSH2 0xF4 JUMPI JUMP JUMPDEST PUSH1 0x4 CALLDATALOAD SWAP1 PUSH20 0xFFFFFFFFFFFFFFFFFFFFFFFFFFFFFFFFFFFFFFFF DUP3 AND DUP3 SUB PUSH2 0xF4 JUMPI JUMP JUMPDEST PUSH1 0x60 DUP2 ADD SWAP1 DUP2 LT PUSH8 0xFFFFFFFFFFFFFFFF DUP3 GT OR PUSH2 0x2EB JUMPI PUSH1 0x40 MSTORE JUMP JUMPDEST SWAP1 PUSH1 0x1F PUSH32 0xFFFFFFFFFFFFFFFFFFFFFFFFFFFFFFFFFFFFFFFFFFFFFFFFFFFFFFFFFFFFFFE0 SWAP2 ADD AND DUP2 ADD SWAP1 DUP2 LT PUSH8 0xFFFFFFFFFFFFFFFF DUP3 GT OR PUSH2 0x2EB JUMPI PUSH1 0x40 MSTORE JUMP JUMPDEST DUP1 MLOAD DUP3 LT ISZERO PUSH2 0x9A3 JUMPI PUSH1 0x20 SWAP2 PUSH1 0x5 SHL ADD ADD SWAP1 JUMP JUMPDEST PUSH32 0x4E487B7100000000000000000000000000000000000000000000000000000000 PUSH1 0x0 MSTORE PUSH1 0x32 PUSH1 0x4 MSTORE PUSH1 0x24 PUSH1 0x0 REVERT JUMPDEST SWAP2 SWAP1 DUP3 ADD DUP1 SWAP3 GT PUSH2 0x9DF JUMPI JUMP JUMPDEST PUSH32 0x4E487B7100000000000000000000000000000000000000000000000000000000 PUSH1 0x0 MSTORE PUSH1 0x11 PUSH1 0x4 MSTORE PUSH1 0x24 PUSH1 0x0 REVERT JUMPDEST DUP1 SLOAD DUP3 LT ISZERO PUSH2 0x9A3 JUMPI PUSH1 0x0 MSTORE PUSH1 0x3 PUSH1 0x20 PUSH1 0x0 KECCAK256 SWAP2 MUL ADD SWAP1 PUSH1 0x0 SWAP1 JUMP JUMPDEST PUSH20 0xFFFFFFFFFFFFFFFFFFFFFFFFFFFFFFFFFFFFFFFF AND SWAP1 DUP2 PUSH1 0x0 MSTORE PUSH1 0x1 PUSH1 0x20 MSTORE PUSH1 0x40 PUSH1 0x0 KECCAK256 SWAP3 DUP4 SLOAD PUSH8 0xFFFFFFFFFFFFFFFF DUP2 GT PUSH2 0x2EB JUMPI PUSH1 0x40 MLOAD SWAP5 PUSH2 0xA75 PUSH1 0x20 DUP4 PUSH1 0x5 SHL ADD DUP8 PUSH2 0x94E JUMP JUMPDEST DUP2 DUP7 MSTORE PUSH1 0x20 DUP7 ADD SWAP1 PUSH1 0x0 MSTORE PUSH1 0x20 PUSH1 0x0 KECCAK256 PUSH1 0x0 SWAP2 JUMPDEST DUP4 DUP4 LT PUSH2 0xC22 JUMPI POP POP POP POP PUSH1 0x0 JUMPDEST DUP5 MLOAD DUP2 LT ISZERO PUSH2 0xB19 JUMPI PUSH1 0x20 PUSH2 0xAAC DUP3 DUP8 PUSH2 0x98F JUMP JUMPDEST MLOAD ADD MLOAD DUP4 EQ PUSH2 0xABD JUMPI PUSH1 0x1 ADD PUSH2 0xA97 JUMP JUMPDEST DUP4 SWAP5 POP SWAP1 PUSH1 0x2 PUSH2 0xAFD PUSH1 0x40 SWAP5 SWAP4 PUSH32 0x970B25B911957FBF97EF28D72FCBB6175E7B3B97729A26EF75CE09E4A72C0FAC SWAP7 PUSH1 0x0 MSTORE PUSH1 0x1 PUSH1 0x20 MSTORE DUP6 PUSH1 0x0 KECCAK256 PUSH2 0xA0E JUMP JUMPDEST POP ADD PUSH2 0xB0A DUP3 DUP3 SLOAD PUSH2 0x9D2 JUMP JUMPDEST SWAP1 SSTORE DUP3 MLOAD SWAP2 DUP3 MSTORE PUSH1 0x20 DUP3 ADD MSTORE LOG2 JUMP JUMPDEST POP SWAP1 SWAP2 SWAP3 POP DUP3 PUSH1 0x0 MSTORE PUSH1 0x1 PUSH1 0x20 MSTORE PUSH1 0x40 PUSH1 0x0 KECCAK256 SWAP2 PUSH1 0x40 MLOAD SWAP2 PUSH2 0xB3A DUP4 PUSH2 0x932 JUMP JUMPDEST DUP5 DUP4 MSTORE PUSH1 0x20 DUP4 ADD SWAP3 DUP3 DUP5 MSTORE PUSH1 0x40 DUP2 ADD SWAP5 DUP3 DUP7 MSTORE DUP1 SLOAD PUSH9 0x10000000000000000 DUP2 LT ISZERO PUSH2 0x2EB JUMPI PUSH2 0xB6F SWAP2 PUSH1 0x1 DUP3 ADD DUP2 SSTORE PUSH2 0xA0E JUMP JUMPDEST SWAP2 SWAP1 SWAP2 PUSH2 0xBF3 JUMPI PUSH32 0x970B25B911957FBF97EF28D72FCBB6175E7B3B97729A26EF75CE09E4A72C0FAC SWAP6 PUSH1 0x40 SWAP6 PUSH20 0xFFFFFFFFFFFFFFFFFFFFFFFFFFFFFFFFFFFFFFFF PUSH1 0x2 SWAP4 MLOAD AND PUSH32 0xFFFFFFFFFFFFFFFFFFFFFFFF0000000000000000000000000000000000000000 DUP6 SLOAD AND OR DUP5 SSTORE MLOAD PUSH1 0x1 DUP5 ADD SSTORE MLOAD SWAP2 ADD SSTORE DUP3 MLOAD SWAP2 DUP3 MSTORE PUSH1 0x20 DUP3 ADD MSTORE LOG2 JUMP JUMPDEST PUSH32 0x4E487B7100000000000000000000000000000000000000000000000000000000 PUSH1 0x0 MSTORE PUSH1 0x0 PUSH1 0x4 MSTORE PUSH1 0x24 PUSH1 0x0 REVERT JUMPDEST PUSH1 0x3 PUSH1 0x20 PUSH1 0x1 SWAP3 PUSH1 0x40 MLOAD PUSH2 0xC35 DUP2 PUSH2 0x932 JUMP JUMPDEST PUSH20 0xFFFFFFFFFFFFFFFFFFFFFFFFFFFFFFFFFFFFFFFF DUP7 SLOAD AND DUP2 MSTORE DUP5 DUP7 ADD SLOAD DUP4 DUP3 ADD MSTORE PUSH1 0x2 DUP7 ADD SLOAD PUSH1 0x40 DUP3 ADD MSTORE DUP2 MSTORE ADD SWAP3 ADD SWAP3 ADD SWAP2 SWAP1 PUSH2 0xA89 JUMP JUMPDEST DUP1 PUSH1 0x0 MSTORE PUSH1 0x0 PUSH1 0x20 MSTORE PUSH1 0x40 PUSH1 0x0 KECCAK256 PUSH20 0xFFFFFFFFFFFFFFFFFFFFFFFFFFFFFFFFFFFFFFFF CALLER AND PUSH1 0x0 MSTORE PUSH1 0x20 MSTORE PUSH1 0xFF PUSH1 0x40 PUSH1 0x0 KECCAK256 SLOAD AND ISZERO PUSH2 0xCAB JUMPI POP JUMP JUMPDEST PUSH32 0xE2517D3F00000000000000000000000000000000000000000000000000000000 PUSH1 0x0 MSTORE CALLER PUSH1 0x4 MSTORE PUSH1 0x24 MSTORE PUSH1 0x44 PUSH1 0x0 REVERT JUMPDEST DUP1 PUSH1 0x0 MSTORE PUSH1 0x0 PUSH1 0x20 MSTORE PUSH1 0x40 PUSH1 0x0 KECCAK256 PUSH20 0xFFFFFFFFFFFFFFFFFFFFFFFFFFFFFFFFFFFFFFFF DUP4 AND PUSH1 0x0 MSTORE PUSH1 0x20 MSTORE PUSH1 0xFF PUSH1 0x40 PUSH1 0x0 KECCAK256 SLOAD AND ISZERO PUSH1 0x0 EQ PUSH2 0xDB4 JUMPI DUP1 PUSH1 0x0 MSTORE PUSH1 0x0 PUSH1 0x20 MSTORE PUSH1 0x40 PUSH1 0x0 KECCAK256 PUSH20 0xFFFFFFFFFFFFFFFFFFFFFFFFFFFFFFFFFFFFFFFF DUP4 AND PUSH1 0x0 MSTORE PUSH1 0x20 MSTORE PUSH1 0x40 PUSH1 0x0 KECCAK256 PUSH1 0x1 PUSH32 0xFFFFFFFFFFFFFFFFFFFFFFFFFFFFFFFFFFFFFFFFFFFFFFFFFFFFFFFFFFFFFF00 DUP3 SLOAD AND OR SWAP1 SSTORE PUSH20 0xFFFFFFFFFFFFFFFFFFFFFFFFFFFFFFFFFFFFFFFF CALLER SWAP3 AND SWAP1 PUSH32 0x2F8788117E7EFF1D82E926EC794901D17C78024A50270940304540A733656F0D PUSH1 0x0 DUP1 LOG4 PUSH1 0x1 SWAP1 JUMP JUMPDEST POP POP PUSH1 0x0 SWAP1 JUMP JUMPDEST DUP1 PUSH1 0x0 MSTORE PUSH1 0x0 PUSH1 0x20 MSTORE PUSH1 0x40 PUSH1 0x0 KECCAK256 PUSH20 0xFFFFFFFFFFFFFFFFFFFFFFFFFFFFFFFFFFFFFFFF DUP4 AND PUSH1 0x0 MSTORE PUSH1 0x20 MSTORE PUSH1 0xFF PUSH1 0x40 PUSH1 0x0 KECCAK256 SLOAD AND PUSH1 0x0 EQ PUSH2 0xDB4 JUMPI DUP1 PUSH1 0x0 MSTORE PUSH1 0x0 PUSH1 0x20 MSTORE PUSH1 0x40 PUSH1 0x0 KECCAK256 PUSH20 0xFFFFFFFFFFFFFFFFFFFFFFFFFFFFFFFFFFFFFFFF DUP4 AND PUSH1 0x0 MSTORE PUSH1 0x20 MSTORE PUSH1 0x40 PUSH1 0x0 KECCAK256 PUSH32 0xFFFFFFFFFFFFFFFFFFFFFFFFFFFFFFFFFFFFFFFFFFFFFFFFFFFFFFFFFFFFFF00 DUP2 SLOAD AND SWAP1 SSTORE PUSH20 0xFFFFFFFFFFFFFFFFFFFFFFFFFFFFFFFFFFFFFFFF CALLER SWAP3 AND SWAP1 PUSH32 0xF6391F5C32D9C69D2A47EA670B442974B53935D1EDC7FD64EB21E047A839171B PUSH1 0x0 DUP1 LOG4 PUSH1 0x1 SWAP1 JUMP INVALID LOG2 PUSH5 0x6970667358 0x22 SLT KECCAK256 0xA6 0x2E 0xC9 CODESIZE SAR DUP8 0x4F SWAP13 DUP7 0xCF SGT 0x21 0xD DUP4 0xDE SMOD DUP11 SWAP11 0x2D 0x2C PUSH14 0xE0B871905D7E9CDB9E936664736F PUSH13 0x634300081B0033AD3228B676F7 0xD3 0xCD TIMESTAMP DUP5 0xA5 PREVRANDAO EXTCODEHASH OR CALL SWAP7 0x2B CALLDATASIZE 0xE4 SWAP2 0xB3 EXP BLOCKHASH 0xB2 BLOCKHASH PC BLOBHASH 0xE5 SWAP8 0xBA PUSH0 0xB5 "
        },
        "methodIdentifiers": {
          "DEFAULT_ADMIN_ROLE()": "a217fddf",
          "VAULT_CONTROLLER_ROLE()": "704e2b2d",
          "addBeneficiary(address,uint256,uint256)": "f74bc9d6",
          "getRoleAdmin(bytes32)": "248a9ca3",
          "grantRole(bytes32,address)": "2f2ff15d",
          "hasRole(bytes32,address)": "91d14854",
          "release()": "86d1a69f",
          "renounceRole(bytes32,address)": "36568abe",
          "revokeRole(bytes32,address)": "d547741f",
          "supportsInterface(bytes4)": "01ffc9a7",
          "token()": "fc0c546a",
          "vestingFor(address)": "f4753b38"
        }
      }
    }
  }
}