{
  "@openzeppelin/contracts/finance/VestingWallet.sol": {
    "VestingWallet": {
      "abi": [
        {
          "inputs": [
            {
              "internalType": "address",
              "name": "beneficiary",
              "type": "address"
            },
            {
              "internalType": "uint64",
              "name": "startTimestamp",
              "type": "uint64"
            },
            {
              "internalType": "uint64",
              "name": "durationSeconds",
              "type": "uint64"
            }
          ],
          "stateMutability": "payable",
          "type": "constructor"
        },
        {
          "inputs": [],
          "name": "FailedCall",
          "type": "error"
        },
        {
          "inputs": [
            {
              "internalType": "uint256",
              "name": "balance",
              "type": "uint256"
            },
            {
              "internalType": "uint256",
              "name": "needed",
              "type": "uint256"
            }
          ],
          "name": "InsufficientBalance",
          "type": "error"
        },
        {
          "inputs": [
            {
              "internalType": "address",
              "name": "owner",
              "type": "address"
            }
          ],
          "name": "OwnableInvalidOwner",
          "type": "error"
        },
        {
          "inputs": [
            {
              "internalType": "address",
              "name": "account",
              "type": "address"
            }
          ],
          "name": "OwnableUnauthorizedAccount",
          "type": "error"
        },
        {
          "inputs": [
            {
              "internalType": "address",
              "name": "token",
              "type": "address"
            }
          ],
          "name": "SafeERC20FailedOperation",
          "type": "error"
        },
        {
          "anonymous": false,
          "inputs": [
            {
              "indexed": true,
              "internalType": "address",
              "name": "token",
              "type": "address"
            },
            {
              "indexed": false,
              "internalType": "uint256",
              "name": "amount",
              "type": "uint256"
            }
          ],
          "name": "ERC20Released",
          "type": "event"
        },
        {
          "anonymous": false,
          "inputs": [
            {
              "indexed": false,
              "internalType": "uint256",
              "name": "amount",
              "type": "uint256"
            }
          ],
          "name": "EtherReleased",
          "type": "event"
        },
        {
          "anonymous": false,
          "inputs": [
            {
              "indexed": true,
              "internalType": "address",
              "name": "previousOwner",
              "type": "address"
            },
            {
              "indexed": true,
              "internalType": "address",
              "name": "newOwner",
              "type": "address"
            }
          ],
          "name": "OwnershipTransferred",
          "type": "event"
        },
        {
          "inputs": [],
          "name": "duration",
          "outputs": [
            {
              "internalType": "uint256",
              "name": "",
              "type": "uint256"
            }
          ],
          "stateMutability": "view",
          "type": "function"
        },
        {
          "inputs": [],
          "name": "end",
          "outputs": [
            {
              "internalType": "uint256",
              "name": "",
              "type": "uint256"
            }
          ],
          "stateMutability": "view",
          "type": "function"
        },
        {
          "inputs": [],
          "name": "owner",
          "outputs": [
            {
              "internalType": "address",
              "name": "",
              "type": "address"
            }
          ],
          "stateMutability": "view",
          "type": "function"
        },
        {
          "inputs": [
            {
              "internalType": "address",
              "name": "token",
              "type": "address"
            }
          ],
          "name": "releasable",
          "outputs": [
            {
              "internalType": "uint256",
              "name": "",
              "type": "uint256"
            }
          ],
          "stateMutability": "view",
          "type": "function"
        },
        {
          "inputs": [],
          "name": "releasable",
          "outputs": [
            {
              "internalType": "uint256",
              "name": "",
              "type": "uint256"
            }
          ],
          "stateMutability": "view",
          "type": "function"
        },
        {
          "inputs": [
            {
              "internalType": "address",
              "name": "token",
              "type": "address"
            }
          ],
          "name": "release",
          "outputs": [],
          "stateMutability": "nonpayable",
          "type": "function"
        },
        {
          "inputs": [],
          "name": "release",
          "outputs": [],
          "stateMutability": "nonpayable",
          "type": "function"
        },
        {
          "inputs": [],
          "name": "released",
          "outputs": [
            {
              "internalType": "uint256",
              "name": "",
              "type": "uint256"
            }
          ],
          "stateMutability": "view",
          "type": "function"
        },
        {
          "inputs": [
            {
              "internalType": "address",
              "name": "token",
              "type": "address"
            }
          ],
          "name": "released",
          "outputs": [
            {
              "internalType": "uint256",
              "name": "",
              "type": "uint256"
            }
          ],
          "stateMutability": "view",
          "type": "function"
        },
        {
          "inputs": [],
          "name": "renounceOwnership",
          "outputs": [],
          "stateMutability": "nonpayable",
          "type": "function"
        },
        {
          "inputs": [],
          "name": "start",
          "outputs": [
            {
              "internalType": "uint256",
              "name": "",
              "type": "uint256"
            }
          ],
          "stateMutability": "view",
          "type": "function"
        },
        {
          "inputs": [
            {
              "internalType": "address",
              "name": "newOwner",
              "type": "address"
            }
          ],
          "name": "transferOwnership",
          "outputs": [],
          "stateMutability": "nonpayable",
          "type": "function"
        },
        {
          "inputs": [
            {
              "internalType": "uint64",
              "name": "timestamp",
              "type": "uint64"
            }
          ],
          "name": "vestedAmount",
          "outputs": [
            {
              "internalType": "uint256",
              "name": "",
              "type": "uint256"
            }
          ],
          "stateMutability": "view",
          "type": "function"
        },
        {
          "inputs": [
            {
              "internalType": "address",
              "name": "token",
              "type": "address"
            },
            {
              "internalType": "uint64",
              "name": "timestamp",
              "type": "uint64"
            }
          ],
          "name": "vestedAmount",
          "outputs": [
            {
              "internalType": "uint256",
              "name": "",
              "type": "uint256"
            }
          ],
          "stateMutability": "view",
          "type": "function"
        },
        {
          "stateMutability": "payable",
          "type": "receive"
        }
      ],
      "evm": {
        "bytecode": {
          "linkReferences": {},
          "object": "60c0601f610b9338819003918201601f19168301916001600160401b038311848410176101105780849260609460405283398101031261010b5780516001600160a01b038116919082900361010b57610066604061005f60208401610126565b9201610126565b9082156100f557600080546001600160a01b031981168517825560405194916001600160a01b03909116907f8be0079c531659141344cd1fd0a4f28419497f9722a3daafe3b4186f6b6457e09080a360805260a052610a58908161013b8239608051818181610217015281816108dc0152610911015260a0518181816106a8015281816108b101526109790152f35b631e4fbdf760e01b600052600060045260246000fd5b600080fd5b634e487b7160e01b600052604160045260246000fd5b51906001600160401b038216820361010b5756fe6080604052600436101561001b575b361561001957600080fd5b005b60003560e01c80630a17b06b146106cc5780630fb5a6b414610687578063191655871461054a578063715018a6146104cc578063810ec23b1461049257806386d1a69f146102f75780638da5cb5b146102c357806396132521146102a55780639852595c1461025e578063a3f8eace1461023b578063be9a6555146101f6578063efbe1c1c146101db578063f2fde38b146101075763fbccedae0361000e57346101025760006003193601126101025760206100fa6100f1476100ec67ffffffffffffffff42169160015490610727565b610901565b60015490610853565b604051908152f35b600080fd5b346101025760206003193601126101025773ffffffffffffffffffffffffffffffffffffffff610135610704565b61013d6109d3565b1680156101ac5773ffffffffffffffffffffffffffffffffffffffff600054827fffffffffffffffffffffffff0000000000000000000000000000000000000000821617600055167f8be0079c531659141344cd1fd0a4f28419497f9722a3daafe3b4186f6b6457e0600080a3005b7f1e4fbdf700000000000000000000000000000000000000000000000000000000600052600060045260246000fd5b346101025760006003193601126101025760206100fa6108a3565b3461010257600060031936011261010257602060405167ffffffffffffffff7f0000000000000000000000000000000000000000000000000000000000000000168152f35b346101025760206003193601126101025760206100fa610259610704565b610860565b346101025760206003193601126101025773ffffffffffffffffffffffffffffffffffffffff61028c610704565b1660005260026020526020604060002054604051908152f35b34610102576000600319360112610102576020600154604051908152f35b3461010257600060031936011261010257602073ffffffffffffffffffffffffffffffffffffffff60005416604051908152f35b3461010257600060031936011261010257610324476100ec67ffffffffffffffff42169160015490610727565b61033b6103346001548093610853565b8092610727565b6001557fda9d4e5f101b8b9b1c5b76d0c5a9f7923571acfc02376aa076b75a8c080c956b6020604051838152a173ffffffffffffffffffffffffffffffffffffffff6000541681471061046057600080809381935af13d15610458573d9067ffffffffffffffff821161042957604051916103de60207fffffffffffffffffffffffffffffffffffffffffffffffffffffffffffffffe0601f8401160184610763565b82523d6000602084013e5b156103f057005b8051156103ff57602081519101fd5b7fd6bda2750000000000000000000000000000000000000000000000000000000060005260046000fd5b7f4e487b7100000000000000000000000000000000000000000000000000000000600052604160045260246000fd5b6060906103e9565b50477fcf4791810000000000000000000000000000000000000000000000000000000060005260045260245260446000fd5b34610102576040600319360112610102576104ab610704565b6024359067ffffffffffffffff82168203610102576020916100fa916107a4565b34610102576000600319360112610102576104e56109d3565b600073ffffffffffffffffffffffffffffffffffffffff81547fffffffffffffffffffffffff000000000000000000000000000000000000000081168355167f8be0079c531659141344cd1fd0a4f28419497f9722a3daafe3b4186f6b6457e08280a3005b3461010257602060031936011261010257610563610704565b6020600073ffffffffffffffffffffffffffffffffffffffff61058584610860565b931692838252600283526040822061059e828254610727565b9055837fc0e523490dd523c33b1878c9eb14ff46991e3f5b2cd33710918618f2a39cba1b84604051848152a273ffffffffffffffffffffffffffffffffffffffff8254169060405190848201927fa9059cbb0000000000000000000000000000000000000000000000000000000084526024830152604482015260448152610627606482610763565b519082855af11561067b576000513d6106725750803b155b61064557005b7f5274afe70000000000000000000000000000000000000000000000000000000060005260045260246000fd5b6001141561063f565b6040513d6000823e3d90fd5b3461010257600060031936011261010257602060405167ffffffffffffffff7f0000000000000000000000000000000000000000000000000000000000000000168152f35b346101025760206003193601126101025760043567ffffffffffffffff81168103610102576100fa6020916100ec4760015490610727565b6004359073ffffffffffffffffffffffffffffffffffffffff8216820361010257565b9190820180921161073457565b7f4e487b7100000000000000000000000000000000000000000000000000000000600052601160045260246000fd5b90601f7fffffffffffffffffffffffffffffffffffffffffffffffffffffffffffffffe0910116810190811067ffffffffffffffff82111761042957604052565b73ffffffffffffffffffffffffffffffffffffffff16906040517f70a08231000000000000000000000000000000000000000000000000000000008152306004820152602081602481865afa90811561067b5760009161081f575b506100ec9061081c93600052600260205260406000205490610727565b90565b90506020813d60201161084b575b8161083a60209383610763565b81010312610102575161081c6107ff565b3d915061082d565b9190820391821161073457565b61081c9073ffffffffffffffffffffffffffffffffffffffff61088d67ffffffffffffffff4216836107a4565b9116600052600260205260406000205490610853565b61081c67ffffffffffffffff7f00000000000000000000000000000000000000000000000000000000000000001667ffffffffffffffff7f000000000000000000000000000000000000000000000000000000000000000016610727565b9067ffffffffffffffff908116907f0000000000000000000000000000000000000000000000000000000000000000168082101561094157505050600090565b6109496108a3565b821061095457505090565b61095d91610853565b908181029181830414901517156107345767ffffffffffffffff7f0000000000000000000000000000000000000000000000000000000000000000169081156109a4570490565b7f4e487b7100000000000000000000000000000000000000000000000000000000600052601260045260246000fd5b73ffffffffffffffffffffffffffffffffffffffff6000541633036109f457565b7f118cdaa7000000000000000000000000000000000000000000000000000000006000523360045260246000fdfea2646970667358221220ba5f46f45aa35c6e304884f0ba3844fd8e24dd008f0bbdb7035ccde8eb31e7e664736f6c634300081b0033",
          "opcodes": "PUSH1 0xC0 PUSH1 0x1F PUSH2 0xB93 CODESIZE DUP2 SWAP1 SUB SWAP2 DUP3 ADD PUSH1 0x1F NOT AND DUP4 ADD SWAP2 PUSH1 0x1 PUSH1 0x1 PUSH1 0x40 SHL SUB DUP4 GT DUP5 DUP5 LT OR PUSH2 0x110 JUMPI DUP1 DUP5 SWAP3 PUSH1 0x60 SWAP5 PUSH1 0x40 MSTORE DUP4 CODECOPY DUP2 ADD SUB SLT PUSH2 0x10B JUMPI DUP1 MLOAD PUSH1 0x1 PUSH1 0x1 PUSH1 0xA0 SHL SUB DUP2 AND SWAP2 SWAP1 DUP3 SWAP1 SUB PUSH2 0x10B JUMPI PUSH2 0x66 PUSH1 0x40 PUSH2 0x5F PUSH1 0x20 DUP5 ADD PUSH2 0x126 JUMP JUMPDEST SWAP3 ADD PUSH2 0x126 JUMP JUMPDEST SWAP1 DUP3 ISZERO PUSH2 0xF5 JUMPI PUSH1 0x0 DUP1 SLOAD PUSH1 0x1 PUSH1 0x1 PUSH1 0xA0 SHL SUB NOT DUP2 AND DUP6 OR DUP3 SSTORE PUSH1 0x40 MLOAD SWAP5 SWAP2 PUSH1 0x1 PUSH1 0x1 PUSH1 0xA0 SHL SUB SWAP1 SWAP2 AND SWAP1 PUSH32 0x8BE0079C531659141344CD1FD0A4F28419497F9722A3DAAFE3B4186F6B6457E0 SWAP1 DUP1 LOG3 PUSH1 0x80 MSTORE PUSH1 0xA0 MSTORE PUSH2 0xA58 SWAP1 DUP2 PUSH2 0x13B DUP3 CODECOPY PUSH1 0x80 MLOAD DUP2 DUP2 DUP2 PUSH2 0x217 ADD MSTORE DUP2 DUP2 PUSH2 0x8DC ADD MSTORE PUSH2 0x911 ADD MSTORE PUSH1 0xA0 MLOAD DUP2 DUP2 DUP2 PUSH2 0x6A8 ADD MSTORE DUP2 DUP2 PUSH2 0x8B1 ADD MSTORE PUSH2 0x979 ADD MSTORE RETURN JUMPDEST PUSH4 0x1E4FBDF7 PUSH1 0xE0 SHL PUSH1 0x0 MSTORE PUSH1 0x0 PUSH1 0x4 MSTORE PUSH1 0x24 PUSH1 0x0 REVERT JUMPDEST PUSH1 0x0 DUP1 REVERT JUMPDEST PUSH4 0x4E487B71 PUSH1 0xE0 SHL PUSH1 0x0 MSTORE PUSH1 0x41 PUSH1 0x4 MSTORE PUSH1 0x24 PUSH1 0x0 REVERT JUMPDEST MLOAD SWAP1 PUSH1 0x1 PUSH1 0x1 PUSH1 0x40 SHL SUB DUP3 AND DUP3 SUB PUSH2 0x10B JUMPI JUMP INVALID PUSH1 0x80 PUSH1 0x40 MSTORE PUSH1 0x4 CALLDATASIZE LT ISZERO PUSH2 0x1B JUMPI JUMPDEST CALLDATASIZE ISZERO PUSH2 0x19 JUMPI PUSH1 0x0 DUP1 REVERT JUMPDEST STOP JUMPDEST PUSH1 0x0 CALLDATALOAD PUSH1 0xE0 SHR DUP1 PUSH4 0xA17B06B EQ PUSH2 0x6CC JUMPI DUP1 PUSH4 0xFB5A6B4 EQ PUSH2 0x687 JUMPI DUP1 PUSH4 0x19165587 EQ PUSH2 0x54A JUMPI DUP1 PUSH4 0x715018A6 EQ PUSH2 0x4CC JUMPI DUP1 PUSH4 0x810EC23B EQ PUSH2 0x492 JUMPI DUP1 PUSH4 0x86D1A69F EQ PUSH2 0x2F7 JUMPI DUP1 PUSH4 0x8DA5CB5B EQ PUSH2 0x2C3 JUMPI DUP1 PUSH4 0x96132521 EQ PUSH2 0x2A5 JUMPI DUP1 PUSH4 0x9852595C EQ PUSH2 0x25E JUMPI DUP1 PUSH4 0xA3F8EACE EQ PUSH2 0x23B JUMPI DUP1 PUSH4 0xBE9A6555 EQ PUSH2 0x1F6 JUMPI DUP1 PUSH4 0xEFBE1C1C EQ PUSH2 0x1DB JUMPI DUP1 PUSH4 0xF2FDE38B EQ PUSH2 0x107 JUMPI PUSH4 0xFBCCEDAE SUB PUSH2 0xE JUMPI CALLVALUE PUSH2 0x102 JUMPI PUSH1 0x0 PUSH1 0x3 NOT CALLDATASIZE ADD SLT PUSH2 0x102 JUMPI PUSH1 0x20 PUSH2 0xFA PUSH2 0xF1 SELFBALANCE PUSH2 0xEC PUSH8 0xFFFFFFFFFFFFFFFF TIMESTAMP AND SWAP2 PUSH1 0x1 SLOAD SWAP1 PUSH2 0x727 JUMP JUMPDEST PUSH2 0x901 JUMP JUMPDEST PUSH1 0x1 SLOAD SWAP1 PUSH2 0x853 JUMP JUMPDEST PUSH1 0x40 MLOAD SWAP1 DUP2 MSTORE RETURN JUMPDEST PUSH1 0x0 DUP1 REVERT JUMPDEST CALLVALUE PUSH2 0x102 JUMPI PUSH1 0x20 PUSH1 0x3 NOT CALLDATASIZE ADD SLT PUSH2 0x102 JUMPI PUSH20 0xFFFFFFFFFFFFFFFFFFFFFFFFFFFFFFFFFFFFFFFF PUSH2 0x135 PUSH2 0x704 JUMP JUMPDEST PUSH2 0x13D PUSH2 0x9D3 JUMP JUMPDEST AND DUP1 ISZERO PUSH2 0x1AC JUMPI PUSH20 0xFFFFFFFFFFFFFFFFFFFFFFFFFFFFFFFFFFFFFFFF PUSH1 0x0 SLOAD DUP3 PUSH32 0xFFFFFFFFFFFFFFFFFFFFFFFF0000000000000000000000000000000000000000 DUP3 AND OR PUSH1 0x0 SSTORE AND PUSH32 0x8BE0079C531659141344CD1FD0A4F28419497F9722A3DAAFE3B4186F6B6457E0 PUSH1 0x0 DUP1 LOG3 STOP JUMPDEST PUSH32 0x1E4FBDF700000000000000000000000000000000000000000000000000000000 PUSH1 0x0 MSTORE PUSH1 0x0 PUSH1 0x4 MSTORE PUSH1 0x24 PUSH1 0x0 REVERT JUMPDEST CALLVALUE PUSH2 0x102 JUMPI PUSH1 0x0 PUSH1 0x3 NOT CALLDATASIZE ADD SLT PUSH2 0x102 JUMPI PUSH1 0x20 PUSH2 0xFA PUSH2 0x8A3 JUMP JUMPDEST CALLVALUE PUSH2 0x102 JUMPI PUSH1 0x0 PUSH1 0x3 NOT CALLDATASIZE ADD SLT PUSH2 0x102 JUMPI PUSH1 0x20 PUSH1 0x40 MLOAD PUSH8 0xFFFFFFFFFFFFFFFF PUSH32 0x0 AND DUP2 MSTORE RETURN JUMPDEST CALLVALUE PUSH2 0x102 JUMPI PUSH1 0x20 PUSH1 0x3 NOT CALLDATASIZE ADD SLT PUSH2 0x102 JUMPI PUSH1 0x20 PUSH2 0xFA PUSH2 0x259 PUSH2 0x704 JUMP JUMPDEST PUSH2 0x860 JUMP JUMPDEST CALLVALUE PUSH2 0x102 JUMPI PUSH1 0x20 PUSH1 0x3 NOT CALLDATASIZE ADD SLT PUSH2 0x102 JUMPI PUSH20 0xFFFFFFFFFFFFFFFFFFFFFFFFFFFFFFFFFFFFFFFF PUSH2 0x28C PUSH2 0x704 JUMP JUMPDEST AND PUSH1 0x0 MSTORE PUSH1 0x2 PUSH1 0x20 MSTORE PUSH1 0x20 PUSH1 0x40 PUSH1 0x0 KECCAK256 SLOAD PUSH1 0x40 MLOAD SWAP1 DUP2 MSTORE RETURN JUMPDEST CALLVALUE PUSH2 0x102 JUMPI PUSH1 0x0 PUSH1 0x3 NOT CALLDATASIZE ADD SLT PUSH2 0x102 JUMPI PUSH1 0x20 PUSH1 0x1 SLOAD PUSH1 0x40 MLOAD SWAP1 DUP2 MSTORE RETURN JUMPDEST CALLVALUE PUSH2 0x102 JUMPI PUSH1 0x0 PUSH1 0x3 NOT CALLDATASIZE ADD SLT PUSH2 0x102 JUMPI PUSH1 0x20 PUSH20 0xFFFFFFFFFFFFFFFFFFFFFFFFFFFFFFFFFFFFFFFF PUSH1 0x0 SLOAD AND PUSH1 0x40 MLOAD SWAP1 DUP2 MSTORE RETURN JUMPDEST CALLVALUE PUSH2 0x102 JUMPI PUSH1 0x0 PUSH1 0x3 NOT CALLDATASIZE ADD SLT PUSH2 0x102 JUMPI PUSH2 0x324 SELFBALANCE PUSH2 0xEC PUSH8 0xFFFFFFFFFFFFFFFF TIMESTAMP AND SWAP2 PUSH1 0x1 SLOAD SWAP1 PUSH2 0x727 JUMP JUMPDEST PUSH2 0x33B PUSH2 0x334 PUSH1 0x1 SLOAD DUP1 SWAP4 PUSH2 0x853 JUMP JUMPDEST DUP1 SWAP3 PUSH2 0x727 JUMP JUMPDEST PUSH1 0x1 SSTORE PUSH32 0xDA9D4E5F101B8B9B1C5B76D0C5A9F7923571ACFC02376AA076B75A8C080C956B PUSH1 0x20 PUSH1 0x40 MLOAD DUP4 DUP2 MSTORE LOG1 PUSH20 0xFFFFFFFFFFFFFFFFFFFFFFFFFFFFFFFFFFFFFFFF PUSH1 0x0 SLOAD AND DUP2 SELFBALANCE LT PUSH2 0x460 JUMPI PUSH1 0x0 DUP1 DUP1 SWAP4 DUP2 SWAP4 GAS CALL RETURNDATASIZE ISZERO PUSH2 0x458 JUMPI RETURNDATASIZE SWAP1 PUSH8 0xFFFFFFFFFFFFFFFF DUP3 GT PUSH2 0x429 JUMPI PUSH1 0x40 MLOAD SWAP2 PUSH2 0x3DE PUSH1 0x20 PUSH32 0xFFFFFFFFFFFFFFFFFFFFFFFFFFFFFFFFFFFFFFFFFFFFFFFFFFFFFFFFFFFFFFE0 PUSH1 0x1F DUP5 ADD AND ADD DUP5 PUSH2 0x763 JUMP JUMPDEST DUP3 MSTORE RETURNDATASIZE PUSH1 0x0 PUSH1 0x20 DUP5 ADD RETURNDATACOPY JUMPDEST ISZERO PUSH2 0x3F0 JUMPI STOP JUMPDEST DUP1 MLOAD ISZERO PUSH2 0x3FF JUMPI PUSH1 0x20 DUP2 MLOAD SWAP2 ADD REVERT JUMPDEST PUSH32 0xD6BDA27500000000000000000000000000000000000000000000000000000000 PUSH1 0x0 MSTORE PUSH1 0x4 PUSH1 0x0 REVERT JUMPDEST PUSH32 0x4E487B7100000000000000000000000000000000000000000000000000000000 PUSH1 0x0 MSTORE PUSH1 0x41 PUSH1 0x4 MSTORE PUSH1 0x24 PUSH1 0x0 REVERT JUMPDEST PUSH1 0x60 SWAP1 PUSH2 0x3E9 JUMP JUMPDEST POP SELFBALANCE PUSH32 0xCF47918100000000000000000000000000000000000000000000000000000000 PUSH1 0x0 MSTORE PUSH1 0x4 MSTORE PUSH1 0x24 MSTORE PUSH1 0x44 PUSH1 0x0 REVERT JUMPDEST CALLVALUE PUSH2 0x102 JUMPI PUSH1 0x40 PUSH1 0x3 NOT CALLDATASIZE ADD SLT PUSH2 0x102 JUMPI PUSH2 0x4AB PUSH2 0x704 JUMP JUMPDEST PUSH1 0x24 CALLDATALOAD SWAP1 PUSH8 0xFFFFFFFFFFFFFFFF DUP3 AND DUP3 SUB PUSH2 0x102 JUMPI PUSH1 0x20 SWAP2 PUSH2 0xFA SWAP2 PUSH2 0x7A4 JUMP JUMPDEST CALLVALUE PUSH2 0x102 JUMPI PUSH1 0x0 PUSH1 0x3 NOT CALLDATASIZE ADD SLT PUSH2 0x102 JUMPI PUSH2 0x4E5 PUSH2 0x9D3 JUMP JUMPDEST PUSH1 0x0 PUSH20 0xFFFFFFFFFFFFFFFFFFFFFFFFFFFFFFFFFFFFFFFF DUP2 SLOAD PUSH32 0xFFFFFFFFFFFFFFFFFFFFFFFF0000000000000000000000000000000000000000 DUP2 AND DUP4 SSTORE AND PUSH32 0x8BE0079C531659141344CD1FD0A4F28419497F9722A3DAAFE3B4186F6B6457E0 DUP3 DUP1 LOG3 STOP JUMPDEST CALLVALUE PUSH2 0x102 JUMPI PUSH1 0x20 PUSH1 0x3 NOT CALLDATASIZE ADD SLT PUSH2 0x102 JUMPI PUSH2 0x563 PUSH2 0x704 JUMP JUMPDEST PUSH1 0x20 PUSH1 0x0 PUSH20 0xFFFFFFFFFFFFFFFFFFFFFFFFFFFFFFFFFFFFFFFF PUSH2 0x585 DUP5 PUSH2 0x860 JUMP JUMPDEST SWAP4 AND SWAP3 DUP4 DUP3 MSTORE PUSH1 0x2 DUP4 MSTORE PUSH1 0x40 DUP3 KECCAK256 PUSH2 0x59E DUP3 DUP3 SLOAD PUSH2 0x727 JUMP JUMPDEST SWAP1 SSTORE DUP4 PUSH32 0xC0E523490DD523C33B1878C9EB14FF46991E3F5B2CD33710918618F2A39CBA1B DUP5 PUSH1 0x40 MLOAD DUP5 DUP2 MSTORE LOG2 PUSH20 0xFFFFFFFFFFFFFFFFFFFFFFFFFFFFFFFFFFFFFFFF DUP3 SLOAD AND SWAP1 PUSH1 0x40 MLOAD SWAP1 DUP5 DUP3 ADD SWAP3 PUSH32 0xA9059CBB00000000000000000000000000000000000000000000000000000000 DUP5 MSTORE PUSH1 0x24 DUP4 ADD MSTORE PUSH1 0x44 DUP3 ADD MSTORE PUSH1 0x44 DUP2 MSTORE PUSH2 0x627 PUSH1 0x64 DUP3 PUSH2 0x763 JUMP JUMPDEST MLOAD SWAP1 DUP3 DUP6 GAS CALL ISZERO PUSH2 0x67B JUMPI PUSH1 0x0 MLOAD RETURNDATASIZE PUSH2 0x672 JUMPI POP DUP1 EXTCODESIZE ISZERO JUMPDEST PUSH2 0x645 JUMPI STOP JUMPDEST PUSH32 0x5274AFE700000000000000000000000000000000000000000000000000000000 PUSH1 0x0 MSTORE PUSH1 0x4 MSTORE PUSH1 0x24 PUSH1 0x0 REVERT JUMPDEST PUSH1 0x1 EQ ISZERO PUSH2 0x63F JUMP JUMPDEST PUSH1 0x40 MLOAD RETURNDATASIZE PUSH1 0x0 DUP3 RETURNDATACOPY RETURNDATASIZE SWAP1 REVERT JUMPDEST CALLVALUE PUSH2 0x102 JUMPI PUSH1 0x0 PUSH1 0x3 NOT CALLDATASIZE ADD SLT PUSH2 0x102 JUMPI PUSH1 0x20 PUSH1 0x40 MLOAD PUSH8 0xFFFFFFFFFFFFFFFF PUSH32 0x0 AND DUP2 MSTORE RETURN JUMPDEST CALLVALUE PUSH2 0x102 JUMPI PUSH1 0x20 PUSH1 0x3 NOT CALLDATASIZE ADD SLT PUSH2 0x102 JUMPI PUSH1 0x4 CALLDATALOAD PUSH8 0xFFFFFFFFFFFFFFFF DUP2 AND DUP2 SUB PUSH2 0x102 JUMPI PUSH2 0xFA PUSH1 0x20 SWAP2 PUSH2 0xEC SELFBALANCE PUSH1 0x1 SLOAD SWAP1 PUSH2 0x727 JUMP JUMPDEST PUSH1 0x4 CALLDATALOAD SWAP1 PUSH20 0xFFFFFFFFFFFFFFFFFFFFFFFFFFFFFFFFFFFFFFFF DUP3 AND DUP3 SUB PUSH2 0x102 JUMPI JUMP JUMPDEST SWAP2 SWAP1 DUP3 ADD DUP1 SWAP3 GT PUSH2 0x734 JUMPI JUMP JUMPDEST PUSH32 0x4E487B7100000000000000000000000000000000000000000000000000000000 PUSH1 0x0 MSTORE PUSH1 0x11 PUSH1 0x4 MSTORE PUSH1 0x24 PUSH1 0x0 REVERT JUMPDEST SWAP1 PUSH1 0x1F PUSH32 0xFFFFFFFFFFFFFFFFFFFFFFFFFFFFFFFFFFFFFFFFFFFFFFFFFFFFFFFFFFFFFFE0 SWAP2 ADD AND DUP2 ADD SWAP1 DUP2 LT PUSH8 0xFFFFFFFFFFFFFFFF DUP3 GT OR PUSH2 0x429 JUMPI PUSH1 0x40 MSTORE JUMP JUMPDEST PUSH20 0xFFFFFFFFFFFFFFFFFFFFFFFFFFFFFFFFFFFFFFFF AND SWAP1 PUSH1 0x40 MLOAD PUSH32 0x70A0823100000000000000000000000000000000000000000000000000000000 DUP2 MSTORE ADDRESS PUSH1 0x4 DUP3 ADD MSTORE PUSH1 0x20 DUP2 PUSH1 0x24 DUP2 DUP7 GAS STATICCALL SWAP1 DUP2 ISZERO PUSH2 0x67B JUMPI PUSH1 0x0 SWAP2 PUSH2 0x81F JUMPI JUMPDEST POP PUSH2 0xEC SWAP1 PUSH2 0x81C SWAP4 PUSH1 0x0 MSTORE PUSH1 0x2 PUSH1 0x20 MSTORE PUSH1 0x40 PUSH1 0x0 KECCAK256 SLOAD SWAP1 PUSH2 0x727 JUMP JUMPDEST SWAP1 JUMP JUMPDEST SWAP1 POP PUSH1 0x20 DUP2 RETURNDATASIZE PUSH1 0x20 GT PUSH2 0x84B JUMPI JUMPDEST DUP2 PUSH2 0x83A PUSH1 0x20 SWAP4 DUP4 PUSH2 0x763 JUMP JUMPDEST DUP2 ADD SUB SLT PUSH2 0x102 JUMPI MLOAD PUSH2 0x81C PUSH2 0x7FF JUMP JUMPDEST RETURNDATASIZE SWAP2 POP PUSH2 0x82D JUMP JUMPDEST SWAP2 SWAP1 DUP3 SUB SWAP2 DUP3 GT PUSH2 0x734 JUMPI JUMP JUMPDEST PUSH2 0x81C SWAP1 PUSH20 0xFFFFFFFFFFFFFFFFFFFFFFFFFFFFFFFFFFFFFFFF PUSH2 0x88D PUSH8 0xFFFFFFFFFFFFFFFF TIMESTAMP AND DUP4 PUSH2 0x7A4 JUMP JUMPDEST SWAP2 AND PUSH1 0x0 MSTORE PUSH1 0x2 PUSH1 0x20 MSTORE PUSH1 0x40 PUSH1 0x0 KECCAK256 SLOAD SWAP1 PUSH2 0x853 JUMP JUMPDEST PUSH2 0x81C PUSH8 0xFFFFFFFFFFFFFFFF PUSH32 0x0 AND PUSH8 0xFFFFFFFFFFFFFFFF PUSH32 0x0 AND PUSH2 0x727 JUMP JUMPDEST SWAP1 PUSH8 0xFFFFFFFFFFFFFFFF SWAP1 DUP2 AND SWAP1 PUSH32 0x0 AND DUP1 DUP3 LT ISZERO PUSH2 0x941 JUMPI POP POP POP PUSH1 0x0 SWAP1 JUMP JUMPDEST PUSH2 0x949 PUSH2 0x8A3 JUMP JUMPDEST DUP3 LT PUSH2 0x954 JUMPI POP POP SWAP1 JUMP JUMPDEST PUSH2 0x95D SWAP2 PUSH2 0x853 JUMP JUMPDEST SWAP1 DUP2 DUP2 MUL SWAP2 DUP2 DUP4 DIV EQ SWAP1 ISZERO OR ISZERO PUSH2 0x734 JUMPI PUSH8 0xFFFFFFFFFFFFFFFF PUSH32 0x0 AND SWAP1 DUP2 ISZERO PUSH2 0x9A4 JUMPI DIV SWAP1 JUMP JUMPDEST PUSH32 0x4E487B7100000000000000000000000000000000000000000000000000000000 PUSH1 0x0 MSTORE PUSH1 0x12 PUSH1 0x4 MSTORE PUSH1 0x24 PUSH1 0x0 REVERT JUMPDEST PUSH20 0xFFFFFFFFFFFFFFFFFFFFFFFFFFFFFFFFFFFFFFFF PUSH1 0x0 SLOAD AND CALLER SUB PUSH2 0x9F4 JUMPI JUMP JUMPDEST PUSH32 0x118CDAA700000000000000000000000000000000000000000000000000000000 PUSH1 0x0 MSTORE CALLER PUSH1 0x4 MSTORE PUSH1 0x24 PUSH1 0x0 REVERT INVALID LOG2 PUSH5 0x6970667358 0x22 SLT KECCAK256 0xBA PUSH0 CHAINID DELEGATECALL GAS LOG3 TLOAD PUSH15 0x304884F0BA3844FD8E24DD008F0BBD 0xB7 SUB TLOAD 0xCD 0xE8 0xEB BALANCE 0xE7 0xE6 PUSH5 0x736F6C6343 STOP ADDMOD SHL STOP CALLER "
        },
        "methodIdentifiers": {
          "duration()": "0fb5a6b4",
          "end()": "efbe1c1c",
          "owner()": "8da5cb5b",
          "releasable()": "fbccedae",
          "releasable(address)": "a3f8eace",
          "release()": "86d1a69f",
          "release(address)": "19165587",
          "released()": "96132521",
          "released(address)": "9852595c",
          "renounceOwnership()": "715018a6",
          "start()": "be9a6555",
          "transferOwnership(address)": "f2fde38b",
          "vestedAmount(address,uint64)": "810ec23b",
          "vestedAmount(uint64)": "0a17b06b"
        }
      }
    }
  }
}